:020000040800F2
:10000000480E00203901000845060008790500085F
:1000100021060008A5010008A50B0008000000004B
:100020000000000000000000000000006908000857
:100030005903000800000000890600087D0A000836
:100040005301000853010008530100085301000840
:100050005301000853010008530100085301000830
:100060005301000853010008530100085301000820
:100070005301000853010008530100085301000810
:100080005301000853010008530100085301000800
:1000900053010008530100085301000853010008F0
:1000A00053010008530100085301000853010008E0
:1000B00053010008530100085301000853010008D0
:1000C00053010008530100085301000853010008C0
:1000D00053010008530100085301000853010008B0
:1000E00053010008530100085301000853010008A0
:1000F00053010008000000005301000853010008EC
:100100000000000000000000530100085301000837
:10011000530100085301000853010008530100086F
:1001200053010008DFF80CD000F02AF8004800471F
:10013000BD0F0008480E00200648804706480047CB
:10014000FEE7FEE7FEE7FEE7FEE7FEE7FEE7FEE787
:10015000FEE7FEE7810A00082501000840EA0103E6
:100160009B0703D009E008C9121F08C0042AFAD26D
:1001700003E011F8013B00F8013B521EF9D2704731
:10018000064C074D06E0E06840F0010394E80700E4
:1001900098471034AC42F6D3FFF7C8FF841200082A
:1001A000A412000802A000F087FB00F04DFA000046
:1001B000204275734661756C745F48616E646C654E
:1001C00072200A0D20000000F8B500208DF8000014
:1001D0001DA000F071FB27A000F06EFB002400F0D2
:1001E000E5FE254E0EE000BF00F0E0FE54B121A078
:1001F00000F062FB012C0AD01EA000F05DFB022C77
:100200000CD116E01DA000F057FB1AA000E01CA0C6
:1002100000F052FB17A000BF00F04EFB15A000F04D
:100220004BFB0025684600F021FB20B19DF8000043
:10023000F8BD14A0F0E76D1CB542F3D3641C042C88
:10024000D2D30020F8BD0000707265737320616E18
:1002500079206B657920746F20656E7465722074E7
:10026000686520626F6F74206D656E752056312E43
:10027000300000000D0A0000006A18003300000082
:10028000320000003100000010B504464FF4004079
:1002900000F010F9042801D10021216010BD0000F8
:1002A00070B505464FF400460C46304600F002F9A2
:1002B00004281CD10E48016821F4807101602CB122
:1002C0002C703046BDE8704000F0F4B825F003060D
:1002D0003468A807C10EFF20884084433046FFF7EA
:1002E000D3FF21463046BDE8704000F003B870BD32
:1002F000043C024070B505464FF400460C463046BB
:1003000000F0D8F804280AD10548016821F480716A
:1003100001602C603046BDE8704000F0CBB870BD85
:10032000043C02400248016841F00101016070474D
:10033000043C024005480068C00705D00348044952
:10034000083001600349016070470000043C02402E
:10035000EFCDAB8905040302704700000149086036
:1003600070470000183C024070B505464FF4004647
:10037000304600F09FF8042815D10B4C206840F45B
:1003800000702060206840F0080020600020286095
:10039000304600F08FF8216821F0080121602168C3
:1003A00021F40071216070BD043C024070B5054627
:1003B0004FF400460C46304600F07CF8042805D186
:1003C0002C603046BDE8704000F074B870BD00008D
:1003D000084904200A68D20701D0012070470A6842
:1003E000D20501D502207047096811F4F05FFAD0F8
:1003F00003207047183C02402DE9F05F814600263B
:100400008B4612F0FF0F4FEA122000D0401C8046AE
:100410002DE000BFD9F80040DFF85CA00BEB062709
:10042000002500F033F804EB0A00B0F5F03F15D2D8
:1004300014F0FF0F12D12046FFF796FF042804D0D6
:1004400000F01CF80120BDE8F09F79596019FFF712
:10045000ADFF042802D12D1DFF2DF6D900F00EF8B6
:10046000D9F8000000F58070C9F80000761C4645F8
:10047000D0D30020E7E7000000E0FFF70248016862
:1004800041F0020101607047043C0240064800B59B
:100490000068800707D5FFF74DFF034803490C307C
:1004A00001600349016000BD043C0240BFAE9D8C69
:1004B0001615141308B5034604208DF80000FFF745
:1004C00087FF8DF8000004E0FFF782FF8DF8000041
:1004D0005B1E9DF80000012801D013B104E0002B41
:1004E000F2D105208DF800009DF8000008BD000045
:1004F000F0B5002301244FF0030E00BF0D6804FA8D
:1005000003F21540954222D106685D000EFA05FC03
:100510000F7926EA0C06AF40374307600E79012EAB
:1005200001D0022E0CD186684F7926EA0C06AF4026
:1005300037438760868896438A799A40324382801F
:10054000C668CA7926EA0C06AA403243C2605B1C20
:10055000102BD3D3F0BD4B07DB0E9A40C90810B562
:1005600000EB8100016A0F249C40A1430162016AF3
:100570001143016210BD000002A000F09DF900F0DF
:1005800063F8000020486172644661756C745F48CE
:10059000616E646C6572200A0D20000002494CF601
:1005A000CC400860704700000030004002494AF625
:1005B000AA200860704700000030004001494860F0
:1005C000704700000030004001498860704700001B
:1005D00000300040014908607047000000300040D2
:1005E000F0B500220D4B154614460A27B1FBF3F671
:1005F00030368654B1FBF3F603FB1611B3FBF7F369
:10060000521C861816F8016C302E00D125B16D1CD5
:10061000641C0A2CEAD3F0BD0022F9E700CA9A3B19
:1006200002A000F049F900F00FF80000204D656DC0
:100630004D616E6167655F48616E646C6572200A2A
:100640000D20000070470000BFF34F8F0448016881
:10065000044A01F4E06111430160BFF34F8FFEE7EC
:100660000CED00E00400FA05BFF34F8F0448016869
:10067000044A01F4E06111430160BFF34F8FFEE7CC
:100680000CED00E00400FA0570470000044A002960
:10069000116801D0014300E0814311607047000000
:1006A0001C380240044A0029116801D0014300E0CF
:1006B000814311607047000024380240044A002939
:1006C000116801D0014300E08143116070470000D0
:1006D0002038024030B5254A1168A2F1040411F017
:1006E0000C034FF4004105D0042B09D0082B09D08E
:1006F0000C2B09D02368C3F342335B1C994018E0EC
:100700001B4916E01B4914E01168136801F47011CD
:10071000194C03F4400304EB91410978012404EBE4
:100720009353146814F4803F1DD0124C6143B1FB05
:10073000F3F1016011680F2303EA11110E4B093325
:100740005C5C0168E14041601468072505EA1424F7
:100750001C5D21FA04F48460126805EAD2229A5CD6
:10076000D140C16030BD024CE0E7000008380240D3
:100770000024F400001BB700000000200146002008
:100780004A09012A09D0064A126801F01F01012313
:100790008B40134200D001207047014A343AF3E7FE
:1007A0003438024001490860704700008006474223
:1007B00070B50C46054604E0284600F057F80128BD
:1007C00004D0641EF8D24FF0FF3070BD002070BD21
:1007D0002DE9F84F884600210646C8F800109246D9
:1007E00011466846FFF7E4FF4FF0FF39B0BB9DF8B4
:1007F0000000182814D006DC012809D0022809D0EE
:1008000004282BD12EE0412816D0612826D113E0F0
:10081000802401E04FF4806401253070671D15E0ED
:1008200051466846FFF7C4FFC0B99DF8000018287C
:1008300014D1C8F8009015E00120BDE8F88F7019B8
:100840005146FFF7B5FF48B96D1CADB2BD42F6D3B6
:10085000B178707881F0FF01884201D04846ECE71A
:10086000C8F800400020E8E77047000010B50446D3
:100870002021054800F038F9002804D00248001D66
:1008800000882070012010BD0038014010B50246DC
:10089000074800F08DFB074C1146204600F07EF91A
:1008A0008021204600F020F90028F9D010BD00007A
:1008B000A08601000038014010B5044603E000BFE7
:1008C000FFF7E4FF641C20780028F9D110BD000078
:1008D0001CB50021374800910191026842F00102E5
:1008E00002604FF4A043026802F002020192009AF3
:1008F000521C0092019A12B9009A9A42F3D10268EE
:10090000920754D501220192046844F480340460B3
:100910000091046804F400340194009C641C009469
:10092000019C14B9009C9C42F3D103689B033ED503
:10093000214901920A6842F004020A600A6842F002
:1009400002020A600A6842F001020A601949243171
:100950000A6842F080520A60CA1418490A604A685C
:10096000D206FCD4134908310A680A600A680A6092
:100970000A680A600A6822F47D020A600A6842F482
:100980000D020A60026842F0807202600268920101
:10099000FCD5086820F003000860086840F00300F8
:1009A00008600868C0F381000328FAD11CBD0191DA
:1009B000FFF75AFE00380240003C02400070004041
:1009C00070B5002204781346302C04D14478782C7A
:1009D0000AD0582C08D06FF02F05845C74B36B2CB0
:1009E0002ED04B2C2CD030E082780AB30224025D4A
:1009F0005AB1A2F14105052D0AD9A2F16106052ED1
:100A000006D91135092D07D913E001200B6011E03B
:100A1000A2F13006092E01D8303A04E0052D01D8A4
:100A2000373A00E0573A641C02EB03130B2CDED379
:100A300002E000200B2C00D3002070BD0B6002E010
:100A40001AB1980207E0012015E06D2C01D04D2C61
:100A500003D112B118050860F5E7A4F13006092E9C
:100A600008D803EB830305EB4303521C23440B2AF2
:100A7000B3D3E1E700200B2ADED270BD704700003F
:100A8000104810B5016841F4807101600D490831CA
:100A90000A680D4B1A400A6002680C4B1A4002604B
:100AA000026822F480220260086820F47D00086059
:100AB000091D00200860FFF70BFF05494FF000609B
:100AC000086010BD003802400CC0FF88FEFFFEEE3B
:100AD00008ED00E00029818902D041F4005101E0D5
:100AE00021F40051818170470246002012880A4299
:100AF00000D00120704700007FB50446008A0D46F3
:100B000020F44051E88808432082A08941F20C611A
:100B10008843A9882A8911436A8902431143A18124
:100B2000A08A20F44071A8890843A0826846FFF794
:100B3000D1FD1948844201D1039800E00298A189AF
:100B4000090400EBC00101EB0010296801D5490040
:100B500000E08900B0FBF1F06422B0FBF2F1090182
:100B60000B096FF018056B4300EB8300A3891D048C
:100B70004FF0320306D503EBC000B0FBF2F000F0FB
:100B8000070005E003EB0010B0FBF2F000F00F00EF
:100B9000084320817FBD000000380140C1F30801F7
:100BA0008180704702A0FFF787FEFFF74DFD000030
:100BB0002055736167654661756C745F48616E644A
:100BC0006C6572200A0D20002DE9F04F4FF0000BEC
:100BD00089B004465348CDE9060B5F46CDF810B006
:100BE0005D46D9464FF480184FF0FF3A5FF000069B
:100BF00000F0DCF9424605A94B48FFF7E9FD30B1AA
:100C0000012874D0B9F1000F7ADD6D1C7AE0059AE5
:100C10000025524509D052B14349F3B24878984271
:100C20000CD01520FFF732FEE2E7062070E0062028
:100C3000FFF72CFE07980028D8D04DE0AEB1204633
:100C4000C91CFFF78BFA0598214682B206A8FFF768
:100C5000D3FBB8B31820FFF719FE1820FFF716FED4
:100C60006FF0010009B0BDE8F08FC87858B30020DC
:100C70002E4BC91C02E01A54401C491C0A780AB1C8
:100C8000FF28F8DD03F800B000206B4601E01A549D
:100C9000401C11F8012F202A01D01028F7DB03F89F
:100CA00000B004A91846FFF78BFE04984FF201012B
:100CB000884209DD1820FFF7E9FD1820FFF7E6FD5F
:100CC0005046CFE70AE004E00620FFF7DFFD4320AF
:100CD00005E00620FFF7DAFD0498C3E70620FFF7DA
:100CE000D5FD4FF00109761C82E700E008E01820EE
:100CF000FFF7CCFD1820FFF7C9FD6FF00200B1E748
:100D00007F1CFFB2012D06DD1820FFF7BFFD182064
:100D1000FFF7BCFD04E04320FFF7B8FD122FE3D935
:100D200000209FE70020000840050020400400202C
:100D300002E008C8121F08C1002AFAD170477047A4
:100D4000002001E001C1121F002AFBD17047000002
:100D50002DE9F047ADF5027D00251A481A4E782797
:100D600080902846B414EA4600F10108002051465C
:100D700016F8012B0A54401C80B2A042F8D3DFF8C9
:100D80004C9000BFFFF712FC2246694680A8FFF78F
:100D900033FB48B128466D1CEDB205280BD9002065
:100DA0000DF5027DBDE8F08700251FFA88F0B842F6
:100DB000DAD30120F4E7484600F0FAF804A0FFF780
:100DC0007BFDDFE7002000080010010840420F0013
:100DD000207772206572726F72200A0D2000000069
:100DE0001CB501210220FFF751FC01210846FFF745
:100DF0004DFC4FF40070009001208DF8040000219C
:100E00008DF806108DF8070003208DF8050069465F
:100E10000548FFF76DFB4FF400400090694603481A
:100E2000FFF766FB1CBD000000040240000002400A
:100E30003EB518A207CA8DE8070019A0FFF73CFDD0
:100E40002648FFF7C1FE041E14DD2548FFF734FDD8
:100E50002448FFF731FD21466846FFF7C1FB22A079
:100E6000FFF72AFD6846FFF727FD22A0FFF724FDC4
:100E700023A008E0601C05D0A01C07D0E41C07D00C
:100E800025A000E02CA0FFF717FD3EBD3AA0FAE731
:100E900040A0F8E720202020202020202020000053
:100EA00057616974696E6720666F72207468652087
:100EB00066696C6520746F2062652073656E7420AE
:100EC0002E2E2E20287072657373202761272074C0
:100ED0006F2061626F7274290A0D000040000020CB
:100EE00030120008400400200A0D2053697A653A48
:100EF000200000002042797465730D0A0000000094
:100F00002D2D2D2D2D2D2D2D2D2D2D2D2D2D2D2D11
:100F10002D2D2D0A000000000A0D4661696C6564E4
:100F200020746F207265636569766520746865203A
:100F300066696C65210A0D000A0A0D54686520690E
:100F40006D6167652073697A6520697320686967D8
:100F5000686572207468616E2074686520616C6CCD
:100F60006F776564207370616365206D656D6F7266
:100F700079210A0D000000000A0A0D5665726966A3
:100F800069636174696F6E206661696C6564210ACA
:100F90000D0000000D0A0A41626F727465642062E0
:100FA0007920757365722E0A0D000000FFF7FEBAF6
:100FB000002100E0491C8142FCD370472DE9FF412C
:100FC0000120FFF7EFFB4120FFF7D8FB0028FAD004
:100FD00045F25550FFF7FEFA0620FFF7EFFA40F210
:100FE000FF30FFF7F1FAFFF7E1FAFFF7D7FA002534
:100FF0004FF4E130ADF808500C210090ADF80450EA
:10100000ADF80A102846ADF80650ADF80C50694608
:1010100000F07CF8FFF7E4FEFFF7D6F808B1FFF721
:1010200007FFFFF7C3FAFFF785F900BFFFF7D0F915
:101030000128FBD0224E3478FFF774F9012C24D11B
:101040002048006820490840B0F1005F1DD11FA072
:10105000FFF732FCFFF77CFE18B30024FFF76AF9B4
:1010600040F6027729463046FFF71AF9042807D0E0
:101070003846FFF773F92046641CE4B20528F1D323
:10108000FFF750F917A0FFF717FCFFF78FFA194980
:101090004868096881F30888804704B00020BDE8EB
:1010A000F08115A0FFF708FCBFF34F8F15480168CA
:1010B000154A01F4E06111430160BFF34F8FFEE771
:1010C000F0070808001001080000FE2F0A0D205F3D
:1010D000617070315F636F70795F746F5F617070A2
:1010E000300000002073756363657373200A0D2060
:1010F0000000000000200008206661696C200A0DD5
:10110000200000000CED00E00400FA052DE9FC4190
:101110000E460446314931480C3150F8240051F84C
:10112000241008430121FFF7B1FA2C480C3824B1F0
:10113000012C07D0022C07D00AE000680121FFF73C
:10114000BDFA05E0406800E080680121FFF7AAFAD7
:101150002248234D183810F814200C3830F8141099
:1011600055F82400FFF7F7F91C4805F10C07123871
:1011700010F814200C3830F8141057F82400FFF73A
:10118000EAF916486946303830F814000090022019
:101190008DF8040003208DF8050000208DF806006E
:1011A00001208DF8070055F82400FFF7A1F90B483E
:1011B00069462A3830F81400009057F82400FFF7E9
:1011C00097F90C3D314655F82400FFF795FC55F88A
:1011D00024000121FFF77EFCBDE8FC811812000805
:1011E0002800002025262700000204000004000437
:1011F00008000008090002000A000A0003000B00B2
:101200000700070007000700070007000040000074
:1012100000000200000004000100000001000000C6
:1012200004000000010000000100000004000000B4
:101230000A0A0D2050726F6772616D6D696E6720CA
:10124000436F6D706C65746564205375636365737B
:101250007366756C6C79210A0D2D2D2D2D2D2D2D7C
:101260002D2D2D2D2D2D2D2D2D2D2D2D2D2D2D2DAE
:101270002D2D2D2D2D2D2D2D2D0D0A204E616D6521
:101280003A200000A41200080000002040000000E6
:10129000300D0008E412000840000020080E000095
:1012A000400D0008030406080C1018203000000050
:1012B00000010203040102030406070809000000FC
:1012C0000038014000440040004800400000024057
:1012D00000000240000802400000024000000240FE
:0412E00000080240C0
:0400000508000125C9
:00000001FF
