:020000040800F2
:10200000402E0020392100083F3D000865210008CE
:102010003D3D000847350008794C000800000000ED
:10202000000000000000000000000000D146000891
:102030007338000800000000413E0008C547000852
:102040005921000859210008592100085921000888
:102050005921000859210008592100085921000878
:10206000592100085921000859210008813600082B
:102070005921000859210008592100085921000858
:102080005921000859210008592100085921000848
:102090005921000859210008592100085921000838
:1020A0005921000859210008592100085921000828
:1020B000B548000859210008592100085921000895
:1020C0005921000859210008592100085921000808
:1020D00059210008254A0008D54A0008054B000888
:1020E00059210008614000085921000859210008C1
:1020F000592100080000000059210008592100085A
:1021000000000000000000005921000859210008CB
:1021100059210008592100085921000859210008B7
:1021200059210008DFF80CD000F000FF00480047FC
:10213000F9B30008402E0020784609F061F80748FE
:10214000804707480047FEE7FEE7FEE7FEE7FEE7B9
:10215000FEE7FEE7FEE7FEE7FEE700005D48000859
:10216000252100087046694607F044FFFFF7FEFF8F
:1021700038B5D0E90221491E01EB410102EBC10152
:102180004268C1EB011102EB81010268C1EB011150
:1021900002EB8102D0E9043101EB410103EB810143
:1021A0003023A1F5527191FBF3F4174D6C4302EB10
:1021B000C41291FBF3F403FB141100921A2902DB01
:1021C000124B1A4400920C2291FBF2F3104C634321
:1021D000009C04EBC313009391FBF2F302FB131179
:1021E0000C4A08E0491E40F2A324535C6343009C60
:1021F00004EBC31300930029F4DC0146684600F0A9
:10220000D7FC009838BD00003F0C0F008051010042
:1022100067C20300B8E6000840EA01039B0703D049
:1022200009E008C9121F08C0042AFAD203E011F815
:10223000013B00F8013B521EF9D27047D2B201E0D7
:1022400000F8012B491EFBD270470022F6E710B5BB
:1022500013460A4604461946FFF7F0FF204610BD14
:1022600010B5044604E00B7800F8013B03B1491CAB
:10227000521EF8D2204610BD421C10F8011B002946
:10228000FBD1801A704730B504460020034600E0B9
:102290005B1C934203D2E05CCD5C401BF8D030BDA8
:1022A00030B505460020034600E05B1C934205D292
:1022B000EC5CC85C201A01D1002CF6D130BD0000C6
:1022C0000FB400B58DB010A909900B9000914FF09C
:1022D000FF300A9000200C900548069005480790B2
:1022E0006A4609A80F9900F0BDFC0DB05DF814FB1B
:1022F000812C00089F2C00082DE9FF5F1D464FF040
:10230000FF3BD5E9014691465F464FF00008A969B9
:102310007F1C01988847296A824688470028F6D1A1
:10232000BAF1FF3F0CD024F4C064002E19DD600622
:1023300014D5BAF12B0F09D0BAF12D0F0ED103E04D
:10234000584604B0BDE8F09F44F48064A9697F1C3E
:1023500001988847761E8246002E02DDBAF1300FC2
:1023600003D0B9F1000F26D032E0A969761E44F4FB
:1023700000747F1C019888478246002E05DDBAF163
:10238000780F06D0BAF1580F03D0B9F1000F10D072
:102390001EE0B9F1000F02D0B9F1100F18D1A969F0
:1023A000761E24F400747F1C019888478246102012
:1023B00002E0082000E00A20814609E008FB090845
:1023C000A969761E44F400747F1C019888478246F0
:1023D000002E05DD4946504600F030FC0028EDDABD
:1023E000E96901988847A00502D46FF00100A8E7C9
:1023F000E00725D1600613D5600502D5C8F10000BD
:1024000000E0404629680A1D2A600968220501D5B6
:10241000087015E0220701D5088011E008600FE080
:102420002868011D29600068210502D580F8008018
:1024300006E0210702D5A0F8008001E0C0F8008086
:1024400038467EE770B5064602F06CFC0468054627
:102450000A220021304600F033FC2C6070BDF0B43D
:1024600080EA0102D40F4200B2EB410F02D20246D1
:10247000084611464A0042D0C30DDDB2C1F3C7522F
:10248000AD1A202D35DAC1F3160141F4000204B172
:102490005242C5F1200602FA06F12A411044B3EB7C
:1024A000D05F23D0C4B1012DA0EBC35009DCF0BC38
:1024B0004FF0004202EAC352DBB200F5000000F028
:1024C00040BC400000F1807000EBC350A0F1807070
:1024D00040EAD170490009E0490841EAC071A0EB27
:1024E000C35000F50000400800EBC350F0BC00F002
:1024F0001FBC6142012202EB4101001BF6E7F0BC68
:10250000704781F00041AAE780F00040A7E780EA29
:10251000010210B502F00043400022D04A001FD053
:10252000010E01EB1261C0F35600C2F3560240F4F3
:10253000000042F40002A0FB022000047F391404D2
:1025400000D0401C50EA124001D44000491EC2B2E3
:102550000C0604EBD010401C4008802A02D003E097
:10256000002010BD20F00100002900DA00201843EF
:1025700010BD30B480EA010202F0004530F00042A4
:1025800021F0004013D090B1C30DD40DC2F3160159
:10259000C0F31600E41A41F4000140F400027D3457
:1025A000914201D3641C00E04900002C02DA30BCE7
:1025B000002070474FF400000023914201D3891A94
:1025C000034340084FEA4101F7D151B1914202D192
:1025D0004FF0004105E002D24FF0010101E06FF041
:1025E000010103EBC450284430BC00F0A1BB420001
:1025F00005D0C0F3C7525242914201DC002070471F
:1026000000EBC15070472DE9FE4F804681EA030080
:10261000C00F0C46009021F0004123F00045B8EBBC
:102620000200A94105D24046214690461C460B4671
:10263000024623F00040104347D0270DC7F30A009D
:10264000C3F30A510290401A019040286BDAC3F399
:10265000130040F4801B0098924620B10023D2EB77
:10266000030A63EB0B0B01985946C0F14002504638
:1026700000F06DFA06460D4650465946019A00F0A4
:1026800085FA10EB08006141002487EA115284EAC0
:10269000E7731A4340D0009A62B3019A012A4FEAC5
:1026A000075215DC001B61EB02014FF0004202EA09
:1026B0000752CDE90042001C41F5801132462B46FD
:1026C00000F07CFB03B0BDE8F08F40462146F9E7FF
:1026D000001B61EB0201001C41F5801300185B41F7
:1026E0002018A2F5001747EB030140EAD570B61990
:1026F0006D4111E06D084FEA360645EAC0754FEAB4
:102700000752001B61EB0201001C41F580114908D2
:102710004FEA30000019514132462B4603B0BDE864
:10272000F04F00F03CBB0098012240000023D0EBAA
:10273000020263EBE073009821464FEAE074B8EBC5
:10274000000061EB0401E9E783F000435BE781F0FF
:10275000004158E72DE9FE4F81EA030404F00044EC
:1027600021F0004100944FF0000B23F0004350EAA9
:1027700001045ED052EA03045BD0C3F30A54C1F3F0
:102780000A552C44A4F2F3340194A0FB0254C1F383
:10279000130141F48011C3F3130343F4801301FBCD
:1027A000024400FB034E840A970A44EA815447EA34
:1027B0008357A4FB076802958D0A05FB07854FEA3E
:1027C000932C04FB0C542705029D4FEA065847EA58
:1027D0001637B5EB08056EEB070C870E920E47EA2D
:1027E000811742EA8312A7FB0201B6EB0B0164EBEF
:1027F00000042B0D43EA0C335E1844EB1C50DA4600
:102800005146E7FB0201C5F313044FEA0B3343EAD9
:1028100014534FEA0432019C43EA0603A4F10C046A
:102820000294009CCDE900B400F0C8FA03B0BDE802
:10283000F08F00200146F9E72DE9F04D81EA03040D
:1028400004F0004B21F0004514464FF0000A23F03D
:10285000004150EA050220D054EA01021DD0C5F320
:102860000A570246C5F31303C1F31300C1F30A5616
:1028700040F4801543F48013A7EB0608101BD646DE
:1028800008F2FD3873EB050002D308F1010801E0FE
:1028900092185B41B8F1000F03DA00200146BDE851
:1028A000F08D00204FF48011064684460EE0171B81
:1028B00073EB050705D3121B63EB050306434CEAD4
:1028C000010C49084FEA300092185B4150EA0107B9
:1028D000EDD152EA030012D082EA040083EA050136
:1028E000084305D0101BAB4106D20122002306E0AD
:1028F00000224FF0004302E06FF0010253101AEB88
:1029000006004CEB085110EB0A0041EB0B01BDE84F
:10291000F04D00F044BA70B521F0004303430CD0F1
:10292000C1F30A550024D5EB040564EB0403D61764
:10293000AD1AB34102DB0020014670BD201841EB07
:10294000025170BDC10F80EAE0700844CA079623A7
:10295000002100F0F6B996230022114600F0F1B9EB
:102960000EB5C10F80EAE0700844CA07002140F2AA
:1029700033438DE80E000A460B4600F01FFA03B001
:1029800000BD0EB540F2334102910021CDE90011A6
:102990000A460B4600F012FA03B000BD20F00040DA
:1029A000C10DC0F3160040F400007F2901DA0020B9
:1029B0007047962903DCC1F19601C84070479639EB
:1029C0008840704770B5C1F30A5201F000450024F9
:1029D000C1F3130140F2FF3341F480119A4201DA4E
:1029E000002070BD40F233439A42A2F2334203DC2E
:1029F000524200F0BBF800E090402C43F1D040423E
:102A000070BD00F0004230F000400AD0C10D01F569
:102A10006071C0F3160042EA0151C2084007114339
:102A2000704700200146704730B5041E71F1000464
:102A300004DB4FF00044404264EB0101141E73F1CB
:102A4000000405DB1C464FF00043524263EB0403D5
:102A50008B4208BF824230BD30B5041E71F10004C4
:102A600004DB4FF00044404264EB0101141E73F19B
:102A7000000405DB1C464FF00043524263EB0403A5
:102A8000994208BF904230BD01F0004330B421F0BC
:102A9000004150EA010206D00A0DA2F56072C1F3AE
:102AA0001301002A02DC30BC00207047440F44EAC6
:102AB000C104C100E01830BC00EBC25000F038B9CE
:102AC00030B50B46014600202022012409E021FAFE
:102AD00002F59D4205D303FA02F5491B04FA02F5FB
:102AE0002844151EA2F10102F1DC30BD2DE9F05F92
:102AF0000546002092469B4688460646814640246D
:102B00001BE0284641464746224600F02FF8534630
:102B10005A46C01A914110D311461846224600F079
:102B200016F82D1A67EB01084F46224601200021B6
:102B300000F00DF817EB00094E41201EA4F101042E
:102B4000DFDC484631462A464346BDE8F09F202A4E
:102B500004DB203A00FA02F1002070479140C2F1F4
:102B6000200320FA03F3194390407047202A04DB26
:102B7000203A21FA02F00021704721FA02F3D040F6
:102B8000C2F120029140084319467047202A06DB13
:102B9000CB17203A41FA02F043EAE07306E041FA2B
:102BA00002F3D040C2F12002914008431946704719
:102BB00010B500683C22B0FBF2F302FB1303B0FB3C
:102BC000F2F00B60B0FBF2F302FB1303B0FBF2F088
:102BD00018224B60B0FBF2F302FB1303B0FBF2F0E0
:102BE000021D8B600723B2FBF3F403FB1422800069
:102BF00040F2B55300F66C308A61B0FBF3F2B0FBE3
:102C0000F3F403FB1400443280084A61C8613B2896
:102C100002D3920700D0401C0022074C13460A61E1
:102C2000E25C824203D8801A5B1C0B61F8E7401C0F
:102C3000C860084610BD000088E800083A2800D2A5
:102C4000303820F02002412A01D3A2F13700884217
:102C500001D34FF0FF3070470268114413780160D0
:102C600018467047D160044951610449116200213E
:102C70001161114600F07AB9592C0008592F00084B
:102C8000426842B1016811F8013B23B1521EC0E90C
:102C90000012184670470121C160881E70474268C3
:102CA0005AB1C368016843B983688B4205D0491E95
:102CB000521CC0E90012002070474FF0FF307047EF
:102CC0002DE9F04791460F4680460446002614F849
:102CD000015B2DB100F03CF90068405DC007F6D102
:102CE0002B2D02D02D2D18D0641E4A463946204681
:102CF00000F0D2FA27B13968A14201D1C7F80080AB
:102D000071054FF002040BD54042002803DD02F0AC
:102D100009F80460A007BDE8F08746F48066E4E7A0
:102D20000028F8DA01F0FEFF04606FF00040F2E7DF
:102D30000029A8BF7047401C490008BF20F00100CF
:102D4000704710B4B0FA80FC00FA0CF050EA0104AD
:102D500004BF10BC704749B1CCF1200421FA04F43F
:102D600011FA0CF118BF012121430843A3EB0C0118
:102D7000CB1D4FEA00614FEA102042BF002010BC7B
:102D8000704700EBC35010440029A4BF10BC70472B
:102D9000401C490008BF20F0010010BC704710B56E
:102DA000141E73F1000408DA401C41F1000192186E
:102DB0005B411A4301D120F0010010BD2DE9F04D17
:102DC00092469B4611B1B1FA81F202E0B0FA80F26C
:102DD00020329046FFF7BBFE04460F4640EA0A0049
:102DE00041EA0B0153465A46084313D0114653EAB1
:102DF000010019D0C8F140025046FFF7B7FE054662
:102E00000E46504659464246FFF7A1FE084305D0FC
:102E1000012004E020463946BDE8F08D002005433E
:102E200046EAE0762C4337430A986305E40AA0EBB0
:102E300008000022FD0A44EA47540A3002D5002067
:102E40000146E9E7010510196941DDE90845001966
:102E50006941BDE8F04DA2E72DE9F04D00231A4687
:102E60001B1A8A4103DB00200146BDE8F08DC1F347
:102E70000A52C1F3130141F480154FF0000BD10742
:102E800002D100186D41521E0027044640F2FF1186
:102E9000384601EB620A3E468046024600204FF467
:102EA0008011FFF763FEC2197141BB1846EB0100A8
:102EB000B4EB030C75EB000C04D3E41A65EB0005CE
:102EC00017460E46241908F101006D41804634284A
:102ED000E3DDF91946EB0600091BA84103D24FF0C8
:102EE000FF32134601E0002213461BEB070046EBBE
:102EF0000A51BDE8F04DFFF752BFC1F30A52C1F3CA
:102F0000130140F2FF3341F480119A4202DA0020AB
:102F10000146704740F233439A42A2F2334202DC48
:102F20005242FFF723BEFFF712BE0000064C074DCA
:102F300006E0E06840F0010394E807009847103489
:102F4000AC42F6D3FFF7F2F800F5000820F50008D0
:102F50000048704718E9000810B50446FFF7F8FF6D
:102F60000068005D00F0010010BD00002DE9F34F86
:102F70008BB04FF0000801F10C000C464FF0010B34
:102F800046460DF1080A01906269012101989047B7
:102F900005002DD0252D2CD0216A8847C0B162694B
:102FA000012101989047216A88470028F7D1411EE6
:102FB00062690198904700E0761CA1690B988847E8
:102FC000216A88470028F7D1E1690B988847DBE739
:102FD000A1690B9888470746A84201D1761CD3E720
:102FE000E1690B9888477F1C02D1B8F1000F6FD0C0
:102FF00046E1002762693D463946019890472A28F4
:1030000004D162690121019890470125DFF884927B
:103010006269012101989047A0F130010A290AD282
:103020004F45E5DC07EB870100EB4107303FDFD47C
:1030300045F01005ECE7E90601D46FF000476C2875
:103040000AD04C2814D0682815D06A280DD07428CE
:103050001CD07A281AD01DE062690121019890479E
:103060006C2802D045F0040514E045F002050DE09F
:1030700045F020050AE0626901210198904768281F
:1030800002D045F0080505E045F4006562690121BC
:1030900001989047C4E9015765283DD019DC5828AC
:1030A0007AD00CDC452837D004DC252826D04128EE
:1030B00031D131E046282FD047282CD12CE05B2895
:1030C00077D0612828D063287CD0642823D15AE0A7
:1030D000D0E06F2848D008DC66281DD067281BD0B8
:1030E000692821D06E2816D127E0702845D0732892
:1030F00068D0752847D078280DD14DE0A1690B988C
:103100008847054625283FF469AFE1690B98884751
:103110006D1C3FF46AAFB3E023466A466FF00100CE
:103120000B99AFF300809EE045F040006060A80777
:1031300023464FF0000236D43EE0E8077FF447AF65
:103140002068011D21600068290501D506701BE774
:10315000290701D5068017E7A90703D5F117C0E9AC
:10316000006111E706600FE745F040006060A807C6
:1031700023464FF0080216D41EE040F60E0125EA61
:103180000100606016E045F040006060A80723463B
:103190004FF00A0207D40FE045F040006060A80736
:1031A00008D5234610226FF001000B99AFF3008081
:1031B00059E007E0234610226FF001000B99FFF75A
:1031C0009BF850E04FF000094F464B46632802D071
:1031D0005B2806D040E0E80601D40120A06001276A
:1031E0003AE062690121019890475E2805D14FF0CD
:1031F00001096269494601989047216939B900215E
:103200000A46534643F82120491C0829FADBB0B38B
:10321000216969B9C11700EBD16253110AEB83012F
:1032200022F01F02821A01200B68904003430B60BA
:1032300062690121019890475D28E8D1B9F1000F3A
:1032400009D00020514651F82020D24341F82020D7
:10325000401C0828F7DB02AB224600976FF0010004
:103260000B99AFF3008000280CDA401C08D1BBF1A9
:10327000000F05D04FF0FF300DB0BDE8F08FFFE735
:103280004046F9E7E90701D108F1010806444FF08B
:10329000000B79E6CCCCCC0C2DE9F05F82460078AF
:1032A000002715468B460AF10104B946302801D0A3
:1032B0009DB113E014F8010B0127782803D058289A
:1032C00001D045B10AE00DB1102D07D1002710251E
:1032D00014F8010B02E0082500E00A250026B0469C
:1032E0000EE005FB080005FB06F1012701EB104687
:1032F0001FFA80F8B6F5803F00D3B94614F8010BE9
:103300002946FFF79BFC0028EBDABBF1000F05D044
:103310000FB1641E00E05446CBF80040B9F1000F35
:1033200006D001F0FFFC02210160C81EBDE8F09F3D
:1033300048EA0640FAE770B58C1810F8015B15F002
:10334000070301D110F8013B2A1106D110F8012B17
:1033500003E010F8016B01F8016B5B1EF9D12B073C
:1033600005D40023521E0DD401F8013BFAE710F8F2
:10337000013BCB1A921C03E013F8015B01F8015BDF
:10338000521EF9D5A142D8D3002070BD0029816812
:1033900002D041F0010101E021F00101816070479C
:1033A00003490A68006822F44032104308607047FD
:1033B000042701400029816802D041F4807101E0B6
:1033C00021F48071816070470029816802D041F446
:1033D000007101E021F4007181607047074910B568
:1033E00088420AD144150121204600F04FFD2046B5
:1033F000BDE81040002100F049BD10BD002401408F
:1034000030B542680F4B0C791A400B6842EA04222F
:103410001343436082680C4B4D791A40D1E9034352
:1034200023438C6844EA4504234313438360026BBF
:10343000097D22F0F872491EC9B242EA01510163C6
:1034400030BD0000FFFEFFFCFDF7FFC070B5072494
:103450001D290AD9C56DA1F11E0606EB4606B4402A
:10346000A543B3401D43C56521E013290AD9C568AA
:10347000A1F1140606EB4606B440A543B3401D4334
:10348000C56014E009290AD90569A1F10A0606EB0D
:103490004606B440A543B3401D43056107E04569B6
:1034A00001EB4106B440A543B3401D4345611F23D2
:1034B000072A09D2046C521E02EB820293409C43FD
:1034C00091400C43046470BD0D2A09D2C46BD21F15
:1034D00002EB820293409C4391400C43C46370BD55
:1034E000132A09D2846B0D3A02EB820293409C436B
:1034F00091400C43846370BD192A09D2446B133A7E
:1035000002EB820293409C4391400C43446370BDA4
:10351000046B193A02EB820293409C4391400C43A6
:10352000046370BD816841F0804181607047002173
:103530000160017141714FF04072C0E902120161F6
:10354000012101757047FEE7044A0123834010689A
:1035500009B1184300E098431060704700740040C0
:1035600030B5084C236840F6FE7282409343D1E99F
:1035700000252A43D1E902510D432A4382401A43D0
:10358000226030BD00740040034A08B51044083082
:103590000090016008BD000000740040034A08B5B7
:1035A000104414300090016008BD00000074004019
:1035B00010B504464FF4004000F048FA042801D149
:1035C0000021216010BD000070B505464FF4004693
:1035D0000C46304600F03AFA04281CD10E48016827
:1035E00021F4807101602CB12C703046BDE8704030
:1035F00000F02CBA25F003063468A807C10EFF209E
:10360000884084433046FFF7D3FF21463046BDE86B
:10361000704000F003B870BD043C024070B5054630
:103620004FF400460C46304600F010FA04280AD148
:103630000548016821F4807101602C603046BDE8C6
:10364000704000F003BA70BD043C024002480168BB
:1036500041F0010101607047043C024005480068E8
:10366000C00705D0034804490830016003490160E0
:1036700070470000043C0240EFCDAB890504030213
:1036800070B5022000F0C0F801282CD100220221E0
:10369000154800F0C9F8154C207801281ED1144AAD
:1036A000002002F10C0100BF52F8203000EB401561
:1036B0000E7801EB450505EB4605401CC3F30B03F3
:1036C000C0B26B800328EFD30878401CC0B20870EA
:1036D000212801D306F03EF800202070BDE870409C
:1036E000022000F007B870BD086002404C000020C6
:1036F0001C020020C10002D4024948607047024900
:1037000008607047006002400464024000290168BC
:1037100002D041F0010102E04FF6FE72114001605B
:103720007047000001684FF6FE72114001600021F1
:10373000016041608160C1603149314A083990427D
:1037400003D1486840F00F0006E02D4A1432904241
:1037500004D1486840F0F00048607047284A283299
:10376000904203D1486840F47060F5E7244A3C3247
:10377000904203D1486840F47040EDE7204A50324F
:10378000904203D1486840F47020E5E71C4A643257
:10379000904203D1486840F47000DDE7184A78325F
:1037A000904203D1486840F07060D5E7154A111F78
:1037B000904203D1086840F00F0006E0114A14322D
:1037C000904204D1086840F0F000086070470D4A4C
:1037D0002832904203D1086840F47060F5E7094A46
:1037E0003C32904203D1086840F47040EDE7054A4E
:1037F00050329042EAD1086840F47020E5E70000BA
:10380000086002400864024001460020CA0001D45A
:10381000034A00E0034A12680A4200D001207047C0
:103820000060024000640240002A026801D00A439E
:1038300000E08A430260704730B5036847F6F072D3
:1038400093430C6A8A682243D1E904452C432243FE
:103850008C692243CC6922434C6A22438C6A2243FE
:103860001A430260CA6842600A6882604968C1609F
:1038700030BD70472DE9F0471E4E002425463088A4
:1038800040F400603080012006F088FF308840F46A
:1038900080603080DFF85C904FF4FA77164E4FF47A
:1038A0000068A9F1180909E02046641CA4B2B842D6
:1038B00004D930780125401C307005E04146484667
:1038C00000F025F90128EFD0BC4204D34146484618
:1038D00000F01DF908B900253570012006F05EFFE3
:1038E0000448001F018821F4806101802846BDE85A
:1038F000F0870000180402404D00002001490860D4
:10390000704700001404014030B51A4983790268F9
:1039100053B30B6893430B600A1D13680468A343F9
:10392000136002790A441368046823431360114A40
:10393000083213680468A3431360131D1C680568EC
:10394000AC431C604479102C05D021440A680068FF
:1039500002430A6030BD1168046821431160196890
:1039600000680143196030BD007908440168914343
:10397000016030BD0004014001490860704700004B
:10398000183C024070B505464FF40046304600F042
:103990005DF8042815D10B4C206840F400702060BD
:1039A000206840F00800206000202860304600F0C9
:1039B0004DF8216821F008012160216821F400718F
:1039C000216070BD043C024070B505464FF40046CE
:1039D0000C46304600F03AF8042805D12C603046F9
:1039E000BDE8704000F032B870BD00000849042006
:1039F0000A68D20701D0012070470A68D20501D5B4
:103A000002207047096811F4F05FFAD00320704774
:103A1000183C02400248016841F002010160704711
:103A2000043C0240064800B50068800707D5FFF750
:103A300015FE034803490C3001600349016000BDD5
:103A4000043C0240BFAE9D8C1615141308B5034606
:103A500004208DF80000FFF7C9FF8DF8000004E096
:103A6000FFF7C4FF8DF800005B1E9DF800000128E1
:103A700001D013B104E0002BF2D105208DF8000035
:103A80009DF8000008BD0000F0B5002301244FF0B0
:103A9000030E00BF0D6804FA03F21540954222D1CF
:103AA00006685D000EFA05FC0F7926EA0C06AF40A9
:103AB000374307600E79012E01D0022E0CD18668A3
:103AC0004F7926EA0C06AF403743876086889643D5
:103AD0008A799A4032438280C668CA7926EA0C06FF
:103AE000AA403243C2605B1C102BD3D3F0BD4B07FE
:103AF000DB0E9A40C90810B500EB8100016A0F2463
:103B00009C40A1430162016A1143016210BD02465B
:103B10000020128A0A4200D001207047418370477A
:103B20000183704770B51D4C251DE8B1288840F40D
:103B300000602880012006F031FE288840F4806073
:103B40002880012006F02AFE208820F48060208052
:103B5000012006F023FE208820F400602080BDE8CC
:103B60007040012006F01ABE208820F400602080FA
:103B7000012006F013FE288840F480602880012090
:103B800006F00CFE208820F480602080012006F0E2
:103B900005FE288840F400602880E0E71404024015
:103BA0002DE9F05FDFF86480DFF860B0FF240127C3
:103BB000FE2600254FF4006AABF1180BA8F10409AA
:103BC000012006F0EBFDB8F8001041F48061A8F880
:103BD0000010012006F0E2FD6006040E5146584632
:103BE000FFF795FF80B13C43B9F8001021F48061E4
:103BF000A9F80010012006F0D1FD6D1CEDB2082DD2
:103C0000DED32046BDE8F09F3440EDE718040240C3
:103C10002DE9F041164C00260746251F38064FF0C7
:103C2000010006D506F0BAFD208840F4006020802F
:103C300005E006F0B3FD288820F40060288001200C
:103C400006F0ACFD208840F480602080012006F062
:103C5000A5FD288820F4806028807806761C070E51
:103C6000F6B2082EDAD3BDE8F041FFF703BE00003C
:103C70001804024010B5012006F090FD0D4C20887C
:103C800040F400602080012006F088FD208840F488
:103C900080602080012006F081FD241F208820F410
:103CA00000602080012006F079FD208820F48060EB
:103CB000208010BD1804024010B5012006F06EFDF2
:103CC0000C48018821F400610180012006F066FDA6
:103CD000084C241D208840F480602080012006F0DC
:103CE0005DFD208840F400602080BDE81040012088
:103CF00006F054BD1404024002494CF6CC40086062
:103D0000704700000030004002494AF6AA200860CF
:103D100070470000003000400149486070470000D3
:103D200000300040014988607047000000300040CA
:103D3000014908607047000000300040FEE770470E
:103D400030B50F22C47801780123FCB1144C2468EB
:103D500001F1E02104F4E064C4F5E064C4F3072455
:103D6000C4F10405E2404478AC4085781540254311
:103D70002A0181F80024007800F01F018B404009DF
:103D8000800000F1E020C0F8003130BD01F01F00DC
:103D900083404809800000F1E020C0F8803130BD48
:103DA0000CED00E0BFF34F8F04480168044A01F4B2
:103DB000E06111430160BFF34F8FFEE70CED00E0BF
:103DC0000400FA05BFF34F8F04480168044A01F468
:103DD000E06111430160BFF34F8FFEE70CED00E09F
:103DE0000400FA050FB4064910B5497800200029EF
:103DF00003D003A9029800F079FF10BC5DF814FB12
:103E00008C010020C9B280B208F038BB07F034F84A
:103E100000231A461946184608F068FD012080F371
:103E20001088FFF7CFFF08F085FA012080F3108893
:103E3000FFF7C8FF014908627047000000000E420A
:103E400070470000044A0029116801D0014300E0D6
:103E500081431160704700001C380240044A002969
:103E6000116801D0014300E08143116070470000F8
:103E700024380240044A0029116801D0014300E0BF
:103E8000814311607047000020380240044A002935
:103E9000116801D0014300E08143116070470000C8
:103EA000143802400248016841F080710160704797
:103EB0003438024030B5254A1168A2F1040411F0EB
:103EC0000C034FF4004105D0042B09D0082B09D076
:103ED0000C2B09D02368C3F342335B1C994018E0D4
:103EE0001B4916E01B4914E01168136801F47011B6
:103EF000194C03F4400304EB91410978012404EBCD
:103F00009353146814F4803F1DD0124C6143B1FBED
:103F1000F3F1016011680F2303EA11110E4B09330D
:103F20005C5C0168E14041601468072505EA1424DF
:103F30001C5D21FA04F48460126805EAD2229A5CBE
:103F4000D140C16030BD024CE0E7000008380240BB
:103F50000024F400001BB7005C0000200146002094
:103F60004A09012A09D0064A126801F01F010123FB
:103F70008B40134200D001207047014A343AF3E7E6
:103F800034380240024900220A700870704700006D
:103F900035380240014908607047000080064742FA
:103FA0000149086070470000D8064742C0F301414C
:103FB000032907D1094A116821F0C04300F0C0412C
:103FC00019431160054934310A6822F440320A600D
:103FD0000A6800F4403002430A607047003802402B
:103FE00038B50022124B0092CA221A6053221A607E
:103FF0000F4A1C3A0029116802D00143116012E0F7
:10400000814311600A4A183A55141168009C01EA6C
:104010001021641C0094AC4201D00029F5D0116835
:1040200011EA102000D00120FF21196038BD0000E6
:104030002428004010B5094BCA241C6053241C607E
:104040001143B0F5807F05D0044824300160FF2083
:10405000186010BD01482030F8E700002428004017
:1040600010B54FF48054204600F0F0F890B120468F
:1040700000F03CF80A4801784A1C0270082909D16E
:10408000012101704168491C41608168491C8160BF
:1040900005F0AAF8BDE810404FF40030FFF72EBC41
:1040A00060010020010901EB810100F00F0000EB2D
:1040B0004100C0B27047002103E0491C0A38C9B270
:1040C000C0B20A28F9D2090740EA1160704700001F
:1040D000C0F3100040F08000C1430348026802F0C2
:1040E00080021143016070470C280040C0F30F109C
:1040F00040F08000C1430348026802F0800211438F
:10410000016070470C28004078B50024284ECA2072
:104110000094254630605320306000F04DF8E0B345
:10412000234824380460224942F2011020390860F3
:10413000091D086800F0070008604D14081D02689A
:10414000009B02F004025B1C0093AB4201D0002AEA
:10415000F5D00268520729D50A680C60144A4FF658
:10416000FF71103A1160121F1249116010490C3989
:104170000C60091D0C60091D0C600D4908310C60B4
:104180000B4918310C600A4920310C60091D0C6084
:10419000046007481C30046000E003E000F0DCF934
:1041A00020B10125FF203060284678BD0025F9E7C1
:1041B00024280040FF007F0008B5002000900C4834
:1041C0000168490612D44FF0FF31016043140168C1
:1041D000009A01F04001521C00929A4201D000293D
:1041E000F5D00068400601D4002008BD012008BDBC
:1041F0000C2800400248016821F0800101607047EE
:104200000C28004010B50C460E4909680E4A1140B2
:104210000A0CE270C1F30423637001F03F03A37042
:10422000C1F34231217000280BD11046FFF73AFF4D
:10423000E0706078FFF736FF6070A078FFF732FF1C
:10424000A07010BD042800403FFFFF000D4A10B5CC
:104250001268002102F004030A4A383A1268840CFA
:1042600020FA04F4024003EAD4331A43064B1B68D5
:1042700003EA101003D00004000C00D0012108460E
:1042800010BD0000402800400C28004010B50C462E
:104290000F4909680F4A1140C1F305422270C1F36A
:1042A0000623637001F07F03A370402303EA1141EA
:1042B000E17000280BD11046FFF7F4FE2070607803
:1042C000FFF7F0FE6070A078FFF7ECFEA07010BD65
:1042D000002800407F7F7F0030B50E4DCA222A6043
:1042E00053222A600B4B0B4A1C3B1C32002920F046
:1042F0000404196800F0040004D021431960116817
:10430000014303E0A1431960116881431160FF205C
:10431000286030BD2428004070B5124D04460026A8
:10432000CA20286053202860FFF746FFA8B10D4837
:104330001C38016821F040010160016822681143C6
:1043400001600848A168143801600168A28841EA48
:1043500002410160FFF74EFF0126FF202860304632
:1043600070BD00002428004070B514460D46264A52
:104370000021002810684FEA406005D000281CDAB0
:104380002078FFF78FFE19E0002800DBE17020782D
:10439000FFF791FE06046078FFF78DFE46EA0026DF
:1043A000A078FFF788FE0643E07846EA0046207BC7
:1043B000FFF781FE46EA006010E0E170207BFFF726
:1043C00071FEA0782178E27840EA01406178090224
:1043D00041EA02410843217B40EA0160A1680A4AA0
:1043E000084361680843CA211C32116053211160DF
:1043F000B5F5807F04D0111F0860FF20106070BDEC
:1044000001491431F8E700000828004070B50C4657
:10441000010060784FF000062AD0FFF743FEA07835
:10442000FFF740FEA078E17840EA01456078217806
:10443000000240EA41300543194CCA202060532055
:104440002060FFF7B9FE78B11648054014482038BF
:104450000560FFF7CFFE12481C380068800602D4C2
:1044600000F07AF800B10126FF202060304670BDD0
:10447000C10603D520F010000A306070E078FFF725
:104480001AFE05046078FFF716FE45EA0025A078BD
:10449000FFF711FE0543207845EA4035CCE70000E0
:1044A000242800403FFFFF002DE9F041244F0C4637
:1044B00002004FF0000620783A6831464FEA426227
:1044C00004D0002A15DAFFF7EDFD13E0002A00DB27
:1044D000E170FFF7F0FD05046078FFF7ECFD45EAB9
:1044E0000025A078FFF7E7FD0543E07845EA0045A1
:1044F0000AE0E170A078217840EA01456078E1782F
:10450000000240EA014005430D4CCA201C342060E3
:1045100053202060FFF750FE68B10A480540084864
:1045200008380560FFF766FE3868800602D400F0A0
:1045300013F800B10126FF2020603046BDE8F0816D
:10454000082800407F7F7F00002101607F214160BB
:10455000FF2181607047000018B500200F490090CE
:10456000CA200860532008600C481838026822F0FE
:10457000A0020260C4130268009B02F020025B1CD0
:104580000093A34201D0002AF5D00068800601D52F
:10459000012000E00020FF220A6018BD242800400E
:1045A0000029018802D041F0400101E021F04001E2
:1045B000018070470246002012890A4200D0012083
:1045C000704730B502884C8802F441530A88CD8880
:1045D00022438C882C4322430C8922434C8922435A
:1045E0008C892243CC8922431A430280828B22F495
:1045F00000628283098A018230BD0029818802D04D
:1046000041F0040101E021F00401818070470000C5
:104610002DE9F0418846074601218AB04802FFF79C
:1046200029FC03250E208DF81C50002406908DF8DF
:104630001F408DF81D5006A92348FFF725FA012FCA
:1046400035D04FF48030089008A8FEF7A9FE1F4E21
:104650003046FEF7C3FE6846FEF769FF01208DF87D
:10466000040000948DF8050002940494012F20D0DA
:104670008DF8145069463046FEF7C2FE43460122CB
:104680000D213046FEF7E2FE434602220C21304661
:10469000FEF7DCFE032243460B213046FEF7D6FE32
:1046A00001213046FEF772FE0AB0BDE8F0810894A1
:1046B000CAE78DF8140069463046FEF7A1FE0122D4
:1046C00043460C21E9E700000008024000240140B5
:1046D000704700001CB50021374800910191026825
:1046E00042F0010202604FF4A043026802F00202AD
:1046F0000192009A521C0092019A12B9009A9A42B1
:10470000F3D10268920754D501220192046844F45F
:10471000803404600091046804F400340194009C27
:10472000641C0094019C14B9009C9C42F3D1036862
:104730009B033ED5214901920A6842F004020A60B7
:104740000A6842F002020A600A6842F001020A6046
:10475000194924310A6842F080520A60CA14184983
:104760000A604A68D206FCD4134908310A680A6014
:104770000A680A600A680A600A6822F47D020A6010
:104780000A6842F40D020A60026842F08072026018
:1047900002689201FCD5086820F0030008600868F0
:1047A00040F0030008600868C0F381000328FAD1D4
:1047B0001CBD0191FFF7F6FA00380240003C0240B0
:1047C0000070004001490120087070478C010020F2
:1047D0001E4910B50868A1F1040410F00C031C4830
:1047E0004FF4004205D0042B09D0082B09D00C2B24
:1047F00009D02368C3F342335B1C9A4019E0154A81
:1048000017E0154A15E00A680B6802F47012104CA4
:1048100003F44003083404EB92421278012404EBC1
:1048200093530C6814F4803F0ED00B4C6243B2FBE0
:10483000F3F202600968064AC1F303111132515CB8
:104840000268CA40026010BD024CEFE7083802401F
:10485000000000200024F400001BB700104810B531
:10486000016841F4807101600D4908310A680D4BFF
:104870001A400A6002680C4B1A400260026822F477
:1048800080220260086820F47D000860091D002075
:104890000860FFF71FFF054805494068086010BD24
:1048A000003802400CC0FF88FEFFFEEE0000002032
:1048B00008ED00E070B501218C07204600F037F8C4
:1048C00001281FD110490878B0B9012008700F4D98
:1048D00001462846FEF76EFD01212846FEF756FDEB
:1048E0002846FEF71FFE01212846FEF76DFD012236
:1048F00002210748FEF798FF2046BDE870400121DD
:1049000000F008B870BD00004C00002000240140F9
:1049100008600240C943018270470029018802D023
:1049200041F0010101E021F00101018070470246E0
:104930000020138A92890B4202EA010202D0002A67
:1049400000D001207047002A828901D00A4300E08C
:104950008A438281704710B5028C22F001020284E2
:10496000028C038B0C8823F073031C4322F0020398
:104970000A891A434B8849681343416304830384BB
:1049800010BD30B5028C22F010020284038C028B21
:104990000C7822F4E0454FF6FF7202EA04242C431F
:1049A00023F020050B8902EA03132B434D88496845
:1049B00002EA05121A4381630483028430BD018533
:1049C00082827047C16270470288B0F1804F08D080
:1049D0000F4B984205D00F4B984202D00E4B984295
:1049E00003D122F070034A881A430C4B984206D038
:1049F0000B4B984203D022F440730A891A43028079
:104A00004A68C262098801850121818270470000DD
:104A10000004004000080040000C0040001000406E
:104A2000001400401CB51DA11E4CD1E90001CDE9C8
:104A3000000140F22551204600F08DF800280ED0EC
:104A4000204600F011F9C4B2214617A000F016F973
:104A50001648017821B12146154808F0AFF91CBD70
:104A6000417800221DF80130A34214D1491CC9B27B
:104A700041700429F3D14270012101700D490A707F
:104A80000D49096841600121C07807F0FBFA0BA0CD
:104A900000F0F4F81CBD42701CBD0000636D640D95
:104AA000000000000038014025630000E001002004
:104AB000B82100208D010020680100200D0A2D2D55
:104AC0002D456E74657220636D642121212D2D2D7D
:104AD0000A00000010B5094C40F22551204600F0B4
:104AE0003AF8002808D0204600F0BEF8C1B2BDE870
:104AF0001040034808F062B910BD000000440040B7
:104B0000E413002010B5094C40F22551204600F076
:104B100022F8002808D0204600F0A6F8C1B2BDE86F
:104B20001040034808F04AB910BD0000004800409A
:104B3000E81A00200029818902D041F4005101E0E7
:104B400021F40051818170470246002012880A42F8
:104B500000D00120704730B501F01F02012400256C
:104B6000C1F3421304FA02F2012B0FD0022B0FD033
:104B7000838A4FEA11210088134204FA01F400EA03
:104B8000040001D000B10125284630BD8389F0E73B
:104B9000038AEEE710B5C1F3421301F01F040121AF
:104BA000A140012B07D0022B07D01430002A026845
:104BB00005D00A4304E00C30F8E71030F6E78A43EA
:104BC000026010BD7FB50446008A0D4620F44051B6
:104BD000E88808432082A08941F20C618843A988B3
:104BE0002A8911436A8902431143A181A08A20F4D2
:104BF0004071A8890843A0826846FFF75BF919480D
:104C0000844201D1039800E00298A189090400EBD5
:104C1000C00101EB0010296801D5490000E08900BE
:104C2000B0FBF1F06422B0FBF2F109010B096FF067
:104C300018056B4300EB8300A3891D044FF032037A
:104C400006D503EBC000B0FBF2F000F0070005E072
:104C500003EB0010B0FBF2F000F00F0008432081DE
:104C60007FBD0000003801408088C0F30800704715
:104C7000C1F3080181807047FEE700000FB4054BC7
:104C800010B503A9044A029803F0DAFA10BC5DF8E3
:104C900014FB0000A1B10008080200200FB41CB5ED
:104CA0000A46521ECDE9000207A9054B6A4606983E
:104CB00003F0C6FA009A002111701CBC5DF814FBC9
:104CC000258D00080FB4084B10B504A902AA03985B
:104CD00003F0B6FA044602A9002004F091F8204639
:104CE00010BC5DF814FB0000018E0008014B024A65
:104CF00003F0A6BAA1B1000808020020490050EA5A
:104D0000C12018BF04204A0D18BF40F0010040F236
:104D1000FF72B2EB515F08BF40F00200012808BFEC
:104D200005207047004870470C0200202DE9F74F1E
:104D3000144694B00021C4E902111599079121F09D
:104D40000045C9498D4206DC1599C4E9000117B038
:104D50000020BDE8F08FC549DFF814A3A9423CDD6F
:104D60000799C44E0029C44FC44A1599534619DD0A
:104D7000FDF7EAFC554506D0C14AC24BFDF7E4FCFD
:104D8000C4E900010AE04FF0D352BE4BFDF7DCFC52
:104D900032463B46FDF7D8FCC4E9000117B00120BC
:104DA000BDE8F08FFDF72FFC554506D0B44AB54B52
:104DB000FDF729FCC4E900010AE04FF0D352B14BE2
:104DC000FDF721FC32463B46FDF71DFCC4E900011E
:104DD00017B04FF0FF30BDE8F08FAB49A9421599ED
:104DE00078DB21F0004183468846A84AA84BFDF7AE
:104DF000B1FC0022A74BFDF706FCFDF7E3FD09908F
:104E0000FDF7AEFD06460F469C4A5346FDF7A2FC51
:104E100043465A46FDF79BFC80468A46984A994B82
:104E200030463946FDF796FC2A0D01250B92424685
:104E30005346FDF78CFC032DC4E9000139D00B98D3
:104E4000C1F30A51401A05EB45111139814230DA9C
:104E50009148C346784400EB0510CDF80CA00C90A7
:104E6000D0E9002330463946FDF774FC02460B4674
:104E70000491069058460399FDF766FC80468A46E1
:104E800002460B4658460399FDF75EFC049B069AC2
:104E9000FDF75AFC83460C9803913946D0E902236A
:104EA0003046FDF757FC5A46039BFDF74DFC6D1C41
:104EB000BDE707980028A2BF099817B0BDE8F08F9A
:104EC000616881F000416160099817B04042BDE817
:104ED000F08FFFE784461598C1F31301C0F30A5021
:104EE000A0F2F5304FEA601800F01F06C6F120006E
:104EF000139000200690079041F4801E05206D4617
:104F000076B1664A08EB00017A4452F8213002EB90
:104F10008101B3404A68139922FA01F1194305E06F
:104F20005F4908EB0002794451F82210A1FB0E27DB
:104F3000A1FB0C131A449A4234BF0123002303EB54
:104F4000070A05EB8003D3E901B70F448F4234BF52
:104F50000121002193448B4411B1934502D903E010
:104F6000934501D2012100E00021C3E901B751447A
:104F700045F82010011EA0F10100C1DC0298059F38
:104F800000F10050800F12900298DDE90356800076
:104F9000FDF7E6FC834628460D91FDF7F2FC6FF025
:104FA0001D02FDF7B8FCCDE90E013046FDF7E9FC26
:104FB0006FF03D02FDF7AFFC80468A463846FDF7AC
:104FC000E0FC6FF05D02FDF7A6FC07464246534643
:104FD0001191FDF718FBDDE90E23FDF714FB5A468E
:104FE0000D9BFDF710FB00250E465A4628460D9BEB
:104FF000FDF7AAFBDDE90E23FDF7A6FB424653466B
:10500000FDF7A2FB3A46119BFDF7A1FBDFF898A044
:10501000244A5346FDF79EFB07468846234A244B05
:1050200031462846FDF796FB3A464346FDF7EBFA34
:10503000074688464FF0A842534631462846FDF7BA
:1050400089FB3A464346FDF7DEFA159A12F0004F07
:1050500004D0129A81F0004152421292C4E9000138
:10506000129817B0BDE8F08FFB21E93F7CD90240D0
:10507000FB21F93F7370032E8A19A33B00004054B3
:105080003163621A61B4D03DFB21394183C8C96DD7
:10509000305FE43F0000E03F40990000BC98000012
:1050A0009E980000182D4454FB21F93D3326A6118B
:1050B000460B113C2DE9FF4D21F0004807460C46F8
:1050C000B8F1795F08DAFDF77DFC002801BF002008
:1050D000324904B0BDE8F08D3A46234610461946E1
:1050E000FDF738FB054602462D480E460B460621C5
:1050F000784400F05DF82A463346FDF72BFBDDE9E6
:10510000022382468B4638462146FDF723FB0446A0
:105110000F4652465B4628463146FDF71BFB2246AA
:105120003B46FDF711FB07468A464FF0FF32284603
:105130003146FDF7F0FB1B4A90450ADA3A465346E2
:10514000FDF702FB04B00022BDE8F04D134BFDF764
:10515000FEBA154A4245A8BFA8F500154FF0000455
:10516000B8BF124D22462B46FDF7EEFA064688469A
:1051700022462B4600200949FDF7E6FA04460D4673
:105180003A46534630464146FDF7DEFA04B0224621
:105190002B46BDE8F04DFDF7DABA00000000F03F05
:1051A0006C9600003333D33F0000E93F0000D23F4C
:1051B0002DE9F0414F1E00EBC7010446D1E9000183
:1051C00015461E4637F006020DD02A463346FDF737
:1051D000C1FA7F1E04EBC703D3E90023FDF713FADE
:1051E00037F00602F1D1022F25D0042F13D0062F5D
:1051F00018BFBDE8F0812A463346FDF7ABFAD4E983
:105200000A23FDF700FA2A463346FDF7A3FAD4E94C
:105210000823FDF7F8F92A463346FDF79BFAD4E94F
:105220000623FDF7F0F92A463346FDF793FAD4E951
:105230000423FDF7E8F92A463346FDF78BFAD4E953
:105240000223FDF7E0F92A463346FDF783FAD4E955
:105250000023BDE8F041FDF7D6B900002DE9FF4D70
:10526000054621F0004084B00C46B0F1795F0BDABE
:105270002846FFF743FD042808BF00F071F82846D0
:1052800008B02146BDE8F08D2A460B461046FDF7D2
:1052900061FA06460F462A462346FDF75BFA80462A
:1052A00026488A4632463B4605217844FFF780FF70
:1052B00083461098029160B3214A224B40465146E2
:1052C000FDF748FACDE900015A4640465146029B97
:1052D000FDF740FA82468846DDE906014FF0FF32CD
:1052E000FDF719FB52464346FDF72EFA32463B4680
:1052F000FDF730FADDE90623FDF726FADDE90023A4
:10530000FDF722FA08B02A462346BDE8F04DFDF726
:105310001EBA0B465A4630463946FDF71BFA084A74
:10532000084BFDF770F942465346FDF713FA08B0F3
:105330002A462346BDE8F04DFDF765B9B295000059
:10534000495555555555C5BF0122FDF7E4BAFDF73E
:105350005AB90022134610461146FDF76DBA0000F7
:10536000024A00201107FDF7D6BA000001FDFFFF39
:1053700002E008C8121F08C1002AFAD1704770471E
:10538000002001E001C1121F002AFBD1704700007C
:1053900001490860704700000C0200202DE9FF4F12
:1053A00091B00E46DDE92245DDF878A083464FF046
:1053B00000084246734B50461F99FDF73DFA0746D9
:1053C000894606F109000C2190FBF1F101EB0B007D
:1053D00040F213114E43092196FBF1F240F26F1394
:1053E000C0EBC0000BFB03F1C31700EB9370A1EB04
:1053F000A00011181398084463490844FDF7B0FA57
:105400000022624BFDF7FFF83A464B46FDF79CF948
:1054100006460F465E4A5F4BFDF79CF95E4A5F4BBE
:10542000FDF7F1F807F056FC00225D4BFDF7EBF8B5
:1054300052461F9BFDF7E7F807F04CFC81460CA88D
:105440008A4600900AAB0EAA3046394607F068FF3C
:10545000DDE90E2348465146FDF776F907F01AFCC0
:105460000022504BFDF7E8F900224F4BFDF76FF992
:10547000DDE90C2306460F464C484D49FDF7DCF9A3
:10548000249A2AB122462B46FDF761F904460D46BF
:10549000DDE90A01474A484BFDF75CF905F0B6F82B
:1054A00082468B46DDE92001424A434BFDF752F923
:1054B0008146019105F0AAF852465B46FDF74AF98C
:1054C00083460391DDE90A013A4A3B4BFDF742F975
:1054D00007F05EFD824605914846019907F058FDA8
:1054E0005246059BFDF736F981468A46314A324BD2
:1054F00020462946FDF72EF907F04AFD4A46534655
:10550000FDF722F95A46039BFDF796F904460D462E
:1055100000222A4BFDF7A0FA04D800244FF0FF38F0
:10552000254619E00022264B20462946FDF77CFA45
:1055300004D84FF0010800241B4D0DE020462946F9
:1055400003F074FF1F4A204BFDF704F90022154BAE
:10555000FDF772F904460D4622462B463046394681
:10556000FDF7F2F8259A2B46C2E9000122463046A3
:105570003946FDF748F8269AC2E9000115B04046C1
:10558000BDE8F08F008076405EDAF4FF0000E03F77
:10559000F853C7506C8AEF3F90A0F831E6978940E6
:1055A0000080664000002E400000284039454772C8
:1055B000F90FD13F399D52A246DF913F0000F03FE5
:1055C0000000F0BFF8C1631ADCA54C402DE9F041A2
:1055D0001D480025C821007806F054FD00261B4C0C
:1055E000012700BF04EB8600C06870B1016819B1E3
:1055F0008847012806D008E02D22154915A0FFF79D
:105600003DFB02E007FA06F00543761CF6B2032ED6
:10561000E8D3A0681C4EA84207D0A560277000F010
:1056200035F8306800F5967060602078012809D15F
:1056300060683168884205D200F028F8306800F5CB
:1056400096706060BDE8F081DC0100201020002031
:105650009AE5000825733A2564207468697A202148
:105660003D204E554C4C202626207468697A2D3EEC
:105670007363616E20213D204E554C4C206661695C
:105680006C65642E0A0000006801002010B586B029
:1056900002A804F005FE040014D002A807F051FD92
:1056A000ADF8020040F20320ADF800000194064B73
:1056B0001E220321684604F04DFF0449488020461D
:1056C00005F06CFF06B010BDD15600081020002078
:1056D00004494B88834203D1002A01D1002008707D
:1056E000704700001020002000B10D3090F901003B
:1056F0007047002801D005F051BF70472DE9F041F7
:105700004FF0FF3550B110F10D0407D0207860B193
:1057100084F8015094F90100BDE8F081392227494D
:1057200027A0FFF7ABFA2846F6E72C4D2C4E4FF09A
:1057300000083146286AFCF7EAFEFDF72FF987B228
:1057400031466869FCF7E3FEFDF728F986B2254982
:10575000A869FCF7DCFEFDF721F985B2404605F0AB
:10576000DBFD0028D6D1154841460A380288BA42E6
:1057700018D30289B24215D3C288B24212D88288A5
:10578000AA420FD34088A8420CD860780128C1D023
:10579000A078421CA2700328BCD984F802800120A2
:1057A0006070B7E760780128B4D1A078421CA2707D
:1057B0000328AFD9A1706170ACE7000066E500086E
:1057C00025733A2564207072697620213D204E555C
:1057D0004C4C206661696C65642E0A00981E00209E
:1057E00000007A440000204100B10D3090F9010022
:1057F0007047002801D005F0D1BE70472DE9F04177
:105800004FF0FF3550B110F10D0407D0207860B192
:1058100084F8015094F90100BDE8F0813A22294949
:1058200029A0FFF72BFA2846F6E72E4D2E4E4FF013
:1058300000083146286AFCF76AFEFDF7AFF887B228
:1058400031466869FCF763FEFDF7A8F886B2274980
:10585000A869FCF75CFEFDF7A1F885B2404605F0AB
:105860005BFD0028D6D0207805F030FD1E28D1D36E
:10587000144841460A380288BA4218D30289B24213
:1058800015D3C288B24212D88288AA420FD3408868
:10589000A8420CD860780128BCD0A078421CA27025
:1058A0000328B7D984F8028001206070B2E76078DD
:1058B0000128AFD1A078421CA2700328AAD9A170F8
:1058C0006170A7E786E5000825733A2564207072A9
:1058D000697620213D204E554C4C206661696C65EF
:1058E000642E0A00981E002000007A440000204127
:1058F00000B10D3090F900007047002801D005F08C
:105900004DBE704710B54FF0FF3440B110F10D019E
:1059100005D0007B50B10C7091F9000010BD2E2213
:10592000114912A0FFF7AAF9204610BD164A0B78BC
:1059300000209268012B0AD0144B9A4212DB4A785D
:10594000531C4B70032AE7D94870012008E0104B24
:105950009A4207DC4A78531C4B70032ADCD9487002
:105960000870D9E74870D7E746E5000825733A255F
:1059700064207072697620213D204E554C4C206683
:1059800061696C65642E0A00981E002000001042B8
:10599000000008422DE9F041554CC2B01421207896
:1059A00006F070FB607800254FF0020804F18C06C9
:1059B000012803D0022845D0042075E04FF4807000
:1059C000ADF804016068037D43B149490831009195
:1059D000426841A901A802F043FB1AE04068FCF7C5
:1059E0004BFC0146BDF80401814204D26068406866
:1059F000FCF742FC00E0401EADF804016068BDF811
:105A00000421416801A8FCF707FCBDF8041101A8B6
:105A1000455401A937A0FEF7E5F93A4807F0ACF97B
:105A2000BDF8041101A800F06DFC84F80C5184F855
:105A30008250A4F88450C4F8886084F8018042B091
:105A4000BDE8F081B4F880000127643000B2A4F80A
:105A500080006168096988421BDAB4F984008028F3
:105A60001ED2C0F1800081B2D4F8880000F036FC6C
:105A700000B2002809DD84F8827034F8841F0144E4
:105A80002180616808446060D9E794F8820018B901
:105A9000D5E794F8820030B1B4F98400802806D3A9
:105AA00084F80B5104E0032084F80C0113E08555C1
:105AB000B4F98410324614A0FEF794F96068B4F982
:105AC00084108268304605F059FD10B184F80C71DD
:105AD00001E084F80C81D4F8101111B194F80C0194
:105AE00088476570207842B0BDE8F04106F0DCBA26
:105AF000001600203C77726974652061743A257342
:105B00003E0A0000E41300203C7265616420617469
:105B10003A5B25645D25733E0A00000070B50446BB
:105B2000007D1D4B1546C8B1042804D94FF4AF724F
:105B30001A491BA00EE031B1C0EB0010420018461C
:105B4000FCF76AFB0EE0A1690029F5D113494FF477
:105B5000B1721FA0BDE87040FFF790B878211846D9
:105B6000FCF773FB0C490120083901F18C024C60F1
:105B700048700020A1F8800081F88200A1F884001C
:105B8000C1F8882081F80C01C1F810510878BDE8EF
:105B90007040142106F076BA0816002098DE00083E
:105BA00025733A25642061745F636D642D3E7061D6
:105BB00072616E756D203C3D2041545F50415241F1
:105BC0005F4E554D206661696C65642E0A000000C9
:105BD00025733A25642061745F636D642D3E7061A6
:105BE000726120213D204E554C4C206661696C65E8
:105BF000642E0A002DE9F04100253A4E3A4C284621
:105C0000012100BF06EB410333F9442FB3F9023001
:105C10009A4265D0012806D16D1CEDB2002A02DA45
:105C2000002B1BDC16E0002A02DD002B00DA10B18D
:105C3000032802D008E001200CE06D1CEDB2002A20
:105C400002DD002B0ADB05E0002A03DA002B01DD70
:105C500000B90320491CC9B22029D3D360788046FB
:105C6000FCF78FFE02460B4600202049FCF7E4FDBE
:105C70006FF00402FCF74FFE06460F466800FCF783
:105C800080FE32463B46FCF765FDFCF7FDFE014613
:105C90001748FCF76EFCE578082D0ED2FCF77EFE67
:105CA000C0B2462806D2282804D961896D1C084450
:105CB0006081E5704046BDE8F0810021E1706089B7
:105CC000C0F3C70020716181A0F129010E2901D81C
:105CD000322003E038380E2802D23C206070A070D9
:105CE0006078E8E728020020B001002000408F40E3
:105CF00000007A442DE9F041002500F0BFFD16496F
:105D000000EB4010154FDFF85880012401EB4006EE
:105D100006EB4400B0F90200FCF722FE3A46434687
:105D2000FCF718FDFCF7B0FE0146FCF7F0FB294636
:105D3000FCF795FB641CE4B20546212CE8D36FF018
:105D40000401FCF754FCFCF75CFE07F0CBF9BDE85E
:105D5000F041FCF799BE0000280200208335CEA652
:105D600023806B3F2DE9F05F002600F087FDDFF810
:105D7000889000EB4010DFF884A0DFF884B00124A5
:105D800009EB400808EB4400B0F90200FCF7E8FD1D
:105D900052465B46FCF7DEFC074609EB44000D4625
:105DA000B0F94400FCF7DCFD164A174BFCF7D2FCB7
:105DB0003A462B46FCF7CEFC07460D463046FCF72C
:105DC00020FE3A462B46FCF71EFCFCF75DFE641CE9
:105DD000E4B20646212CD5D36FF00401FCF707FC92
:105DE000B0F5000F06DA3046BDE8F05F4FF03D41F8
:105DF000FCF78DBBBDE8F09F280200208335CEA6BE
:105E000023806B3F67D65240DAFFCE3F2DE9F04149
:105E10001649002500EB4010154FDFF8588001248B
:105E200001EB400606EB4400B0F90200FCF798FDD8
:105E30003A464346FCF78EFCFCF726FE0146FCF78B
:105E400066FB2946FCF70BFB641CE4B20546212CDB
:105E5000E8D36FF00401FCF7CAFBFCF7D2FD07F0B2
:105E600041F9BDE8F041FCF70FBE00002802002018
:105E700067D65240DAFFCE3F10B510F8012B002450
:105E800062F30F2410F8012BC91E62F3070407F018
:105E900096FCA04201D0002010BD012010BD0000E2
:105EA0002DE9F0410024304D06E0204600F0ECFCE6
:105EB000012857D1641CA4B22888A042F5D8002438
:105EC0004FF48078AF6811E02002464642462749E9
:105ED00002F04EFDFF2F00D8BEB2244924483246BE
:105EE000ACB307F071FDBF1B641CA4B26888A0426C
:105EF000EAD81F48A989028891422CD101250024A3
:105F0000FDF7ACFB1B4E40F6027700BFFDF7FCFE31
:105F100029463046FDF758FB042807D03846FDF7E0
:105F20002BFD2046641CE4B20528EFD3FDF78EFB61
:105F3000012080F31388BFF34F8F0F4801680F4A89
:105F400001F4E06111430160BFF34F8FFEE7FFE70B
:105F500007F020FDC7E74FF6FF710180BDE8F04173
:105F600002F0B6BDBDE8F0812821002028200020E5
:105F7000DE010020F00708080CED00E00400FA053F
:105F80002DE9F04F91B004A80190322204A977487E
:105F900006F0D8FE754C764A7649774D00264FF0CC
:105FA000010A4FF008083C34029060B10E7010688E
:105FB00089466860207908287ED2DFE800F0151C49
:105FC000262B3333333310686A68801A1E2808D3AF
:105FD0002E7081F800A0AE7084F80480E87806F096
:105FE00063F811B0BDE8F08F002384F804801A46EE
:105FF0000121009605E0002384F804801A4602215E
:106000000096002005F0AEFEACE084F8048004F0B9
:1060100001FD04E084F80480012004F0CDFC89F83F
:1060200000A09FE0A878029A504F81181C371E29C3
:1060300007D838440199FCF7EFF8A878029908448A
:1060400008E084F80480C0F11E0238440199FCF78E
:10605000E3F81E20A870C1B2444848A21C3005F0E5
:106060008DFA002866D02079A346042807D0052899
:1060700011D0434C062824D007283AD057E041A03D
:10608000FEF7FCFDA878384400F8016C37481C3056
:1060900004F0A6FC4BE03FA0FEF7F0FDA8786A46AE
:1060A000384441A100F8016C30481C30FCF708F975
:1060B00001283CD1009800E042E080B204F05CFC92
:1060C00035E03AA0FEF7DAFDA87803AA384436A1F5
:1060D00000F8016C25481C30FCF7F2F8012826D1A5
:1060E00003226946207806F0C9FA03988DF800006B
:1060F00016E033A0FEF7C2FDA87803AA384435A104
:1061000000F8016C19481C30FCF7DAF801280ED1B0
:1061100003226946207806F0B1FA03988DF8020050
:1061200003226946207806F019FC89F800A08BF854
:10613000048002E02079082800D1AE70029650E772
:106140000A4802AA01A93C3007F0A6F8002809DB9A
:1061500021790422206802EBC10141581EA0FEF7FC
:106160008DFD27E702980028FBD13AE7B8210020EF
:10617000680100208D010020E00100200D000000DA
:10618000CBE100083C2D2D2D697020736574206FC4
:106190006B3E0A003C2D2D2D706F72742073657458
:1061A000206F6B3E0A000000256400003C2D2D2D61
:1061B0006E7266636820736574206F6B3E0A000020
:1061C0003C2D2D2D6E726670777220736574206F72
:1061D0006B3E0A00257800003C2D2D2D6964656E0C
:1061E000743A25733E0A0000FEB5074648880C46FF
:1061F000093085B2284605F001FA060041D0014673
:106200002A46684606F0A3FF2188684607F020F872
:106210006188684607F01CF82648008881B2684605
:1062200007F016F83946684607F012F862886846A3
:10623000616806F0EFFF684606F083FF0446684693
:1062400006F083FF214603F08BFE0146684606F008
:10625000D2FF022000EB450080B205F0CFF9070025
:1062600011D0154B2A46314603F000FB05463C464B
:106270000146204604F0D8FB294610A0FDF7B2FDE8
:106280000AE00020FEBD304605F088F9F9E72178E4
:106290000FA0FDF7A7FD641C6D1EADB2F7D20EA0D6
:1062A000FDF7A0FD304605F079F9384605F076F99E
:1062B0000120FEBD90010020A0E400086672616D1F
:1062C000655F73656E64206C656E5B25645D2000A0
:1062D00025302E32782000000A00000070B50C46F0
:1062E0000646002507E0064806F019FD00B2411CED
:1062F00004D070556D1C641EA4B2F4D2284670BD43
:10630000E41300202DE9F04105460C460F46094EE6
:106310000AE040213046FEF717FC0028F9D015F8B6
:10632000011B3046FEF7A4FC641EA4B2F1D238462D
:10633000BDE8F081004400402DE9F041044606F03C
:106340001DFCA04203D87422234924A00CE031494B
:1063500004EB440001EB8000D0E93E24A3689A429C
:1063600005D077221C492CA0FEF788FC32E0884635
:1063700093B290F8F4000021E26804F0A5FC012833
:1063800002D00025266922E00020BDE8F081707867
:1063900000EB400108EB81077188F888C91C88422E
:1063A00003D081220C492B48DEE7E268BB68401E1F
:1063B0001A4446211154E068B9680844F988FFF787
:1063C0005BFD08B1562038716D1CEDB20C36207D96
:1063D000A842DCD80120D8E7ABDE000825733A25B7
:1063E000642028636C73203C207075626C69635F65
:1063F000706172615F7265675F6765745F636C612E
:1064000073735F6D6178282929206661696C656402
:106410002E0A00007817002025733A25642028737F
:106420005F6463622E636C735B636C735D2E66697D
:106430006C6573697A65203D3D2070636C61737390
:106440002D3E6D656D6C656E29206661696C6564B5
:106450002E0A00009CF2000810B50369044623B11F
:106460000A46208804F108019847E06805F096F88C
:106470002146BDE81040014804F0E2B98C1E00201E
:106480002DE9F047254C264E0025E07940B93570BE
:1064900003F058F90120E0710146207A05F0F2FD81
:1064A0003078212838D3E57101F01EFE1D4D296892
:1064B000E068814230D92968081AC6B22868E060CD
:1064C00000243046FCF747FADFF85C80814604EB95
:1064D000440208EBC2074846B969FCF718F8796A24
:1064E000FBF7BDFF7862204604F016FF10B1B86AD2
:1064F0003044B862641C14F0FF04E8D028682868AF
:106500004FF46161B0FBF1F201FB1200B04203D223
:10651000BDE8F04704F0B0BCBDE8F087B001002052
:106520002802002068010020981E00202DE9F04775
:10653000394F00EB400107EB8109D9F8FC40217885
:10654000814203D0D622354935A019E000252669BD
:106550005CE096B17078E36800EB400007EB8001E7
:1065600088468A68C98898180B44521E9A5C462A45
:1065700009D0E0222949374802E0DB22274936A02A
:10658000FEF77CFB45E098F80520130713D598F833
:106590000410562902D0017831B903E0E3221F49E3
:1065A00034A0EDE7407818B1E4221C493DA0E7E7AC
:1065B00022F0080110E0D20725D098F80420562ACE
:1065C00003D0EB22154947A0DAE7FFF755FCB0B13D
:1065D00098F8050020F0010188F80510D9F8FC00B2
:1065E000B8F80630C168D8F808000A1881B299F8DE
:1065F000F40004F099FB30B10020BDE8F087EC22F4
:1066000006494448BCE76D1CEDB20C36207DA8421B
:106610009FD80120F1E7000078170020CFDE0008A6
:1066200025733A25642028636C73203D3D20735FF9
:106630006463622E636C735B636C735D2E70636C5A
:106640006173732D3E7479706529206661696C658C
:10665000642E0A00ECF2000825733A2564202870A5
:1066600072656720213D203029206661696C656470
:106670002E0A000025733A25642028735F64636244
:106680002E70705B69645D2E76616C696420213DBB
:106690002056414C49445F29206661696C65642E2F
:1066A0000A00000025733A2564202870686561643B
:1066B0002D3E63686B73756D5B305D203D3D203012
:1066C0002026262070686561642D3E63686B7375B3
:1066D0006D5B315D203D3D203029206661696C6530
:1066E000642E0A0025733A25642028735F64636270
:1066F0002E70705B69645D2E76616C6964203D3D2F
:106700002056414C49445F29206661696C65642EBE
:106710000A000000A0F300082DE9FF5FDDE9022078
:10672000010DDDF838B0024318D044F61050A1F244
:10673000FF3141430D140F98012820D0A5EB0B0029
:10674000401C5FEA000A4FF00004474EDFF81C913E
:10675000A046504616D5CAF1000728E00F9801243C
:1067600043A2012808D0002100980F9BC0E9002116
:10677000C0E90243BDE8FF9F6FEA0B01F4E7CBF1EC
:106780000000DEE7074612E0F80707D0224633464E
:1067900040464946FBF7DEFF80468946224633469F
:1067A00010461946FBF7D6FF04460E467F10002F11
:1067B000EAD1DDE90201BAF1000F42464B4602DAA6
:1067C000FBF7C8FF01E0FCF737F804460E4600224D
:1067D000284BFCF741F903D84FF0FF30014607E0A2
:1067E0000022254B20463146FBF70DFFFCF785FBC9
:1067F000102409E0002C0ADB0A220023FCF776F9BA
:10680000019B30321A55641E50EA0102F2D1641C19
:10681000019AC4F1110314440F9A012A03D00122F2
:1068200008430DD10AE0084304D000204FF0110BBB
:106830000F9080E7A3EB0B056D1E0DE05B4504DDBB
:106840004FF0000205F1010504E003DA4FF0000209
:10685000A5F10105002AECD000980F99C0E902319A
:10686000C0E9004586E70000000024400000F03F3A
:10687000300000000000F0430000E03F01004FF056
:10688000000000D102207047C0F3C70200F00701EA
:10689000044810440122007C8A40104000D00120AE
:1068A000704700002821002005494888A0F57F4254
:1068B000FF3A03D0401C488080B270470120FAE7BD
:1068C000AC0100203EB582888168684606F03FFC36
:1068D000684606F078FC0446684606F074FC684694
:1068E00006F04CFC0146204603F0DAFD3EBD2DE9E2
:1068F000F0418AB0054682888168684606F027FC28
:10690000684606F03BFC002706468DF80C703C46B6
:1069100012E0684606F032FC8046684606F02EFC1F
:106920008DF80D00012824D08DF80E7003A9404683
:1069300004F092FC641CE4B2B442EAD32878002844
:1069400014D006A803F0ACFC04000FD006A806F093
:10695000F8FBADF8120040F20120ADF810000594EC
:1069600004A803F0B9FD204604F018FE0AB0BDE803
:10697000F081684606F002FC8DF80E00D6E710B5EF
:10698000007886B0002814D002A803F089FC040027
:106990000FD002A806F0D5FBADF8020040F20220AD
:1069A000ADF800000194684603F096FD204604F01F
:1069B000F5FD06B010BD000070B500788EB000285F
:1069C00044D0222203A9684606F0C1FB204C684649
:1069D000216806F049FC6846616806F045FC684697
:1069E000A16806F041FC217C684606F004FC012108
:1069F000684606F000FC002505EB450004EBC006E8
:106A00006846716906F030FC6846B16906F02CFCF6
:106A10006846F16906F028FC6846716A06F024FCB5
:106A20006846316A06F020FC6D1C15F0FF05E3D0C6
:106A3000684606F086FBADF8320003A80D904FF4CF
:106A40000170ADF830000CA803F046FD0EB070BD2B
:106A5000981E002010B5007892B000283CD02D225E
:106A600003A9684606F073FB0121684606F0C3FBE4
:106A70001AA42046FBF700FCC1B2684606F0BBFB37
:106A80002146684606F0FCFB17A42046FBF7F4FB02
:106A9000C1B2684606F0AFFB2146684606F0F0FB3F
:106AA000134C6846216806F0DFFB6846616806F013
:106AB000DBFB10480168684606F0D6FB684606F026
:106AC00040FBADF83E0003A8109040F20520ADF861
:106AD0003C000FA803F000FD12B010BD68617264A5
:106AE0002D76312E300000003030303000000000B4
:106AF00098010020640100202DE9F04F834693B0F7
:106B0000002007900646BBF804206846DBF8081012
:106B100006F01DFB684606F031FB0C900020EBE010
:106B2000684606F02BFB0446684606F027FB0B90F0
:106B3000082C70D2DFE804F06F0431575E76FCFB5E
:106B40000B98072827D1684606F018FB64308DF8AB
:106B50002500684606F012FB8DF82400684606F012
:106B60000DFB8DF82300684606F008FB8DF8260023
:106B7000684606F003FB8DF82200684606F0FEFA30
:106B80008DF82100684606F0F9FA8DF8200008A873
:106B900005F0BAF9ADE001463EE0684606F0EEFACF
:106BA000054601281BD8012000EBC5010B98814246
:106BB00015D1714809EB4901002400EBC10709E038
:106BC000684606F00EFB7862684606F00AFB641C15
:106BD000E4B2B862AC42F3D304F04EF989E00B980A
:106BE000401E81B218E00126684606F0C7FA6349E4
:106BF00008707EE00B981028CDD16049012608224C
:106C00000831684606F0D0FA5C490822103168461F
:106C100006F0CAFA6DE0ACE0684606F0A1FA012081
:106C2000079066E0684606F08CFA1090684606F019
:106C3000A5FA0D9001287DD800204CE006F09EFAC0
:106C40005FEA000876D1684606F098FA4B490728B3
:106C500008766FD80846002500EB080A33E068463E
:106C600006F08CFA08EB480202EB082105EB8502DE
:106C7000214402EB45128F18072878765AD86846C7
:106C800006F07CFAB876002418E0684606F076FA3A
:106C900004EB84017E18F076684606F06FFA3077D0
:106CA000684606F06BFA7077684606F067FAB077C8
:106CB000684606F063FA641CF077E4B2787EA0427E
:106CC000E3D86D1CEDB29AF818002C4CA842C6D837
:106CD0000398401CC0B2014603900D98814268465B
:106CE000ACD306F02EFA1099411A0B98814221D1AB
:106CF000012609F10100C0B20C9981468842FFF4D7
:106D00000FAF36B11E484FF490721C49007805F061
:106D10000BFF9BF80000002806D0BBF8020048F2E9
:106D20000621079A03F002FB13B0BDE8F08F13E0D1
:106D30000AE0FFE70120079011484FF490720F49D5
:106D4000007805F09BFCE4E7684606F04AFA0D4936
:106D5000042208600C4808E00A4C0322211D684602
:106D600006F014FA03220948211D007805F0DCFE24
:106D700055E70B9950E70000981E0020F01E0020F8
:106D8000CEE1000890010020C9E10008CCE1000834
:106D90002DE9F04F0446007893B0002876D03220D9
:106DA00004F02CFC0790002870D00146322268467F
:106DB00006F0CDF96188684606F04AFAA2880BA869
:106DC000A16806F0C4F90BA806F0D8F901460590B1
:106DD000684606F010FA4FF0000ADFF8E4B1D4E09C
:106DE0000BA806F0CBF904460146684606F003FA04
:106DF000082C79D2DFE804F0E10425404B5CE1C0C7
:106E00000721684606F0F7F96E4C60796438C1B224
:106E1000684606F0F0F92179684606F0ECF9E17869
:106E2000684606F0E8F9A179684606F0E4F9A17829
:106E3000684606F0E0F96178684606F0DCF92178EA
:106E400020E00921684606F0D6F90121684606F0DF
:106E5000D2F95D490AEB4A00002401EBC0056846FF
:106E6000696A06F001FA6846A96A06F0FDF9641C31
:106E700014F0FF04F3D084E00121684606F0BBF96A
:106E80009BF80010684606F0B6F97AE092E010210F
:106E9000684606F0B0F94A4908220831684606F00B
:106EA000C8F9474908221031684606F0C2F968E07F
:106EB000684606F048F90F900121684606F050F93F
:106EC0000121684606F097F900242146684606F03D
:106ED00092F90BEB04095D4699F81810684606F024
:106EE0008AF90026AB4637E067E000BF04EB4401B7
:106EF00001EB042101EB0B0006EB860101EB4611CF
:106F00004518A846697E684606F075F9A97E684668
:106F100006F071F9002519E005EB850108EB010782
:106F20006846F97E06F067F9397F684606F063F92E
:106F3000797F684606F05FF9B97F684606F05BF92D
:106F4000F97F684606F057F96D1CEDB298F8190004
:106F5000A842E1D8761CF6B299F81810B142C5D80B
:106F6000641C14F0FF04B0D0684606F0ECF80F99EA
:106F7000401A401E087004E003221449684606F0D7
:106F800049F90AF1010000F0FF0A05998A45FFF46A
:106F900027AF684606F0D5F8ADF8220007980990AB
:106FA00040F20720ADF8200008A803F095FA0798F2
:106FB00004F0F4FA13B0BDE8F08F002162E700009E
:106FC000F01E0020D8130020981E002094010020FD
:106FD0007FB5044682888168002501A806F0B7F8CD
:106FE00001A806F0CBF80021012802D002280CD11C
:106FF00004E0002300911A46012103E000230091E0
:107000001A460221002004F0ADFE2078002805D0A9
:1070100060882A4648F2082103F088F97FBD000005
:1070200070B5828800258EB006460A2A2BD105A8A5
:10703000B16806F08CF805A806F0C5F8ADF80000B8
:1070400005A806F09BF870B931A0FBF7FBF9BDF875
:10705000001080B2814202D24FF0020538E002D126
:107060004FF0010534E005A806F0BBF8019005A833
:1070700006F0A9F8ADF8080005A806F07FF88DF82D
:107080000A00A02801D9032522E0234C0C226946DE
:10709000201DFBF7F8F8D8B19DE80700231D83E811
:1070A0000700802104F11000FBF7CFF8A17BA06856
:1070B000B0FBF1F201FB1202B0FBF1F102B1491C8D
:1070C00010F0FF0F21804FEA102000D0401C60809C
:1070D000307800281AD003220DA908A806F037F846
:1070E000718808A806F0B4F8294608A806F083F8C5
:1070F00008A806F026F8ADF82E000DA80C904FF465
:107100000470ADF82C000BA803F0E6F90EB070BDCA
:107110003030303000000000282100202DE9F043FD
:10712000002582888FB006462F460A2A41D302A83E
:10713000B16806F00CF802A806F053F83E4CA168BE
:10714000884236D102A806F03EF8A189A1468842BD
:107150002FD102A806F037F8044602A806F033F84B
:10716000B9F8001080464A1E4846A24201DD877BDE
:1071700005E004D1837B826804FB132297B2A1420D
:1071800017D902A805F0D4FFB84212D10020ADF8FB
:10719000040002A805F0CCFF074602A805F0D3FFC3
:1071A00001463A4601A806F0F5FBBDF8041041453A
:1071B00001D001251EE02046FFF766FBD0B902A8EA
:1071C00005F0B6FF074602A805F0BDFF01463A46A6
:1071D000204602F0D5F858B1C4F3C70004F0070107
:1071E000802805D248440123027C8B401A43027454
:1071F000FEF756FE307800281AD003220DA907A802
:1072000005F0A5FF718807A806F022F8294607A80F
:1072100005F0F1FF07A805F094FFADF82E000DA8CA
:107220000C9040F21120ADF82C000BA803F054F99B
:107230000FB0BDE8F08300002821002030B50078B1
:1072400087B000282CD0882004F0D8F9040027D07B
:107250000146882203A805F07AFF124D03A8A988E9
:1072600005F0F6FF03A8A96805F0FEFFA98903A8A9
:1072700005F0EEFF802205F1100103A805F0CAFF1A
:1072800003A805F05EFFADF8060040F21220ADF84D
:107290000400029401A803F01FF9204604F07EF9CF
:1072A00007B030BD28210020F0B58BB00D4620225C
:1072B0000C3103A805F04BFF012103A805F050FF96
:1072C000012202A903A805F061FF012103A805F02E
:1072D00047FF012206A903A805F058FF03A805F0FF
:1072E0004DFF064602A804F08FFA040017D020785C
:1072F0000027B0422ED026709DF81800607103A8B8
:1073000005F03CFF607003A805F038FFA070608AAC
:10731000401C608267B1204604F02CFA0BE0012784
:1073200004F0AAFA040015D09DF808002071E2E7E5
:1073300002A804F0CBFA2C6000241D2207A8A9683B
:1073400005F005FF214607A805F055FF29468120D5
:1073500004F078FB0BB0F0BD3EB508680C4690B168
:1073600004F0A0FB01280DD000251D226846A1686D
:1073700005F0EDFE2946684605F03DFF21468220D6
:1073800004F060FB3EBD03B09822BDE830400249E6
:1073900002A0FDF773BC000019DB000825733A2535
:1073A00064207061636B65742D3E6E6F646520218F
:1073B0003D204E554C4C206661696C65642E0A0078
:1073C00070B586B00C460A790D688968684605F084
:1073D000BEFE684605F0D2FE70B100261D2203A84D
:1073E000A16805F0B4FE314603A805F004FF21466C
:1073F000832004F027FB14E0206804F053FB10E026
:10740000684605F0BBFE012802D002280ED104E038
:10741000684605F0B3FEA87503E0684605F0D3FEA4
:10742000A882684605F084FE0028E9D1204601F0D4
:10743000CFFB06B070BD10B5086804F033FB032025
:1074400006F082F90021BDE81040052006F048B999
:1074500010B5086804F026FB0021BDE810400620A6
:1074600006F03EB92DE9F0410446002700F10C0575
:10747000867B04F09FFB03466A78314613A0FCF735
:10748000B1FC012E04D0681C04F020FA07001BD0C8
:10749000ED1C27601D20A56020711A48406811E08E
:1074A0000179B1420DD1826822B121463046BDE852
:1074B000F0411047BDE8F0415D22134913A0FDF7EC
:1074C000DDBB00680028EBD1BDE8F0813C6E726640
:1074D00032346C303120726563763A20747970658D
:1074E0003A307825302E32782C20616464723A2547
:1074F000302E32782C207369676E616C3A25643EB9
:107500000D0A00002C01002047DB000825733A25F6
:1075100064206375727074722D3E68616E646C6570
:107520007220213D2030206661696C65642E0A005E
:107530002DE9F05F04468B46002535A0FCF752FC90
:10754000607821784FF0010600EB01201FFA80F9E6
:10755000E078A178AA4600EB012083B26079217916
:1075600000EB012087B2E079A17900EB012082B223
:107570002D48990B428006702C4E02D0012905D06F
:107580000FE0318889B2B9422BD10AE094F808C0E3
:107590005FF0000106EB010898F80480E0451CD17B
:1075A0006D1C31888EB22249BE4206D080F800A000
:1075B0004E880EB1B24214D04A809A0400D52D1DD7
:1075C000C3F30902ABEB0503093B82809A4208D161
:1075D000621908328260486816E0491CC9B2032962
:1075E000D8D3BDE8F09F82884A450CD1816819B193
:1075F000BDE8F05F0C480847BDE8F05F97220D49F1
:107600000DA0FDF73BBB00680028ECD1E9E70000C6
:107610005F68646C5F726563765F64617461206C3F
:10762000656E3A25640A0000F41B002090010020DA
:10763000A0010020A4E4000825733A2564206375A6
:10764000727074722D3E68616E646C657220213DAB
:107650002030206661696C65642E0A002DE9F047D0
:1076600005F08EFA0746142803D99B22454946A007
:1076700007E005F083FA0646032805D99D22414913
:107680004BA0FDF7FBFA7AE00025DFF8509161E0AE
:10769000284605F067FA01460024006922463AE0D0
:1076A00030B14378BB4207D3A62236494CA0E8E765
:1076B000A522344953A0E4E790F800C091F8008077
:1076C000C44503D0A7222F4955A0DAE7B0F802C07D
:1076D00004F10308C444D1F80880C44503D9A822A2
:1076E00028495A48CDE703EB430C09EB8C034FF0D4
:1076F000000CD86083F804C083F805C09C60B0F823
:1077000002C0521C0CF1030C1FFA8CFCA3F806C03B
:107710006444D2B20C300B7D9342C1D805EB4502D4
:1077200009EB82008046C0E93E418868844203D06C
:10773000B722144946A0A4E7A0B203F0A9FA88F83A
:10774000F400FF280AD02246294650A0FCF74AFB45
:107750006D1CEDB2B5429BD334460EE0BA22094906
:1077600056A08EE7651EE8B2FEF7E6FD002807D0BA
:10777000611E5CA0FCF736FBECB2002CF2D10120BC
:10778000BDE8F087BDDE000825733A256420286D2A
:1077900061786964203C3D204D41585F50505F4EF8
:1077A000554D29206661696C65642E0A0000000051
:1077B00025733A256420286E636C617373203C3D09
:1077C000204D41585F50505F434C4153535F4E55DD
:1077D0004D29206661696C65642E0A0078170020C7
:1077E00025733A25642028707265672D3E696420F0
:1077F0003C206D6178696429206661696C65642E3E
:107800000A00000025733A256420287072656720FD
:10781000213D203029206661696C65642E0A0000D4
:1078200025733A25642028707265672D3E7479703F
:1078300065203D3D2070636C6173732D3E747970DB
:107840006529206661696C65642E0A00E8F300080A
:1078500025733A25642028735F6463622E636C731A
:107860005B695D2E66696C6573697A65203D3D20B4
:1078700070636C6173732D3E6D656D6C656E292050
:107880006661696C65642E0A000000003C5F696EE9
:1078900069745F7075626C69635F706172612C20DE
:1078A000636C733A282564292C2066696C657369BA
:1078B0007A653A282564293E0D0A000025733A2589
:1078C0006420735F6463622E636C735B695D2E6614
:1078D0007020213D2030786666206661696C6564A1
:1078E0002E0A00003C5F636F70795F66696C655FAC
:1078F000746F5F72616D2C20636C733A2825642964
:107900003E0D0A0004490844B0F5DE6F01D30120A2
:10791000704700207047000000FFF7F72DE9F0479F
:107920000025DFF8C480DFF8C490314C012700BF88
:1079300014F8250038BB04EB85004178FF290DD0F1
:1079400005EBC50303EB080201EB41015618C178B2
:10795000B2784B1D9A4206D9C3700FE004F8257027
:107960000021817003E0531D8B4202D2491FC17078
:1079700004E004F8257071788170C2708178C6784F
:10798000012901D051B115E010214846FCF7C6F895
:107990003146284605F0F6F8314608E01021484601
:1079A000FCF7BEF80021284605F0ECF80021284637
:1079B00002F07AFE6D1C15F0FF05B9D00C4A0020CC
:1079C000B2F1010214F8201041B1401C10F0FF0088
:1079D000F8D01078BDE8F04704F066BB1078BDE839
:1079E000F047142104F04EBBE41E002000080240C2
:1079F000C70100201CB501210220FCF723FA012158
:107A00000846FCF71FFA4FF40070009001208DF833
:107A1000040000208DF806008DF8070003208DF883
:107A2000050069460548FCF72FF84FF40040009028
:107A300069460348FCF728F81CBD0000000402401A
:107A4000000002402DE9F0410B2600253F4C0128A3
:107A50001ED0024661783EA0FCF7C4F961780A297D
:107A600066D00C29A1784FF6FF7001F10101C9B26F
:107A7000A17001EB4102C2EBC11100EAC101207803
:107A80005DD004F0FFFAA0780A285DD8BDE8F08147
:107A9000A5702078012104F0F5FA61780A27072003
:107AA000C91E0C29F2D2DFE801F0070D060B0F11F9
:107AB0003B17193D3F41E9E72179012900D1042015
:107AC0006070E3E70520FBE70820F9E70920607014
:107AD00020784FF4C8712EE06670D7E7244E25A2B7
